:100000000000042059AC04009DAC04009FAC040027
:10001000A1AC0400A3AC0400A5AC040000000000E7
:10002000000000000000000000000000A7AC040079
:10003000A9AC040000000000ABAC0400ADAC0400AF
:10004000B97C0400A1650400AFAC0400AFAC0400AF
:10005000AFAC0400AFAC0400AFAC0400AFAC040024
:10006000AFAC0400AFAC0400AFAC0400AFAC040014
:10007000AFAC0400B5620000AFAC0400AFAC04004C
:10008000AFAC0400AFAC0400AFAC0400AFAC0400F4
:10009000AFAC0400AFAC0400AFAC0400AFAC0400E4
:1000A000AFAC0400AFAC0400AFAC0400AFAC0400D4
:1000B000AFAC0400AFAC0400000000000000000082
:1000C000AFAC0400AFAC0400AFAC0400AFAC0400B4
:1000D00039620000AFAC0400AFAC0400758C0400C2
:1000E000AFAC0400AFAC0400AFAC040000000000F3
:1000F00000000000AFAC040000000000AFAC040042
:1001000000000000000000000000000000000000EF
:1001100000000000000000000000000000000000DF
:1001200000000000000000000000000000000000CF
:1001300000000000000000000000000000000000BF
:1001400000000000000000000000000000000000AF
:10015000000000000000000000000000000000009F
:10016000000000000000000000000000000000008F
:10017000000000000000000000000000000000007F
:10018000000000000000000000000000000000006F
:10019000000000000000000000000000000000005F
:1001A000000000000000000000000000000000004F
:1001B000000000000000000000000000000000003F
:1001C000000000000000000000000000000000002F
:1001D000000000000000000000000000000000001F
:1001E000000000000000000000000000000000000F
:1001F00000000000000000000000000000000000FF
:1002000010B5054C237833B9044B13B10448AFF350
:1002100000800123237010BD800100200000000039
:10022000982C050008B5034B1BB103490348AFF3F5
:10023000008008BD0000000084010020982C05000B
:10024000A3F5803A704700BF174B002B08BF134B34
:100250009D46FFF7F5FF00218B460F461348144AD1
:10026000121A4BF09FF90E4B002B00D098470D4B04
:10027000002B00D098470020002104000D000D48FD
:10028000002802D00C48AFF300804BF01DF920008D
:10029000290000F05EF94BF003F900BF00000800F0
:1002A0000000000000000000000004208001002089
:1002B000901301200000000000000000094B1A8884
:1002C00072B9094A1188094A1288C2F50060814250
:1002D000C8BF81B2198019B10548104406F032BA7E
:1002E000704700BF9E030020A20B0020A00B00203F
:1002F000A00300200749084A0B8810880344C3F371
:100300000A030B8005490B881B1A0B8000231380FE
:10031000FFF7D4BFA00B00209E030020A20B0020FB
:100320002DE9F047194FDFF86C9006460D464FF067
:10033000000AB8463C88B9F800001549C4F50064C5
:10034000A4B2AC4228BF2C4606EB040C66450CD088
:10035000B8F8003016F801EBC218C2F30A020133F4
:1003600001F802E0A8F80030F0E72D1BADB25444CC
:10037000FFF7A4FF1FFA84FA2DB106F003FA10B9B3
:10038000FFF7B8FFD6E75046BDE8F087A20B002084
:10039000A0030020A00B00202DE9F7432B4D2E8851
:1003A0000F461346A846A6B90A4629484FF40061ED
:1003B0004BF082FAB0F5006F044606D2254B288038
:1003C0001E80254B1E80FFF779FF204603B0BDE855
:1003D000F083204A1E48158801932E44C6F30A066E
:1003E000B5428CBFAD1BC6F50065ADB29146304439
:1003F0000A4629464BF060FA041EE4DBA54205DDFF
:10040000B8F800302344A8F80030DCE7B4F5006FFA
:10041000D9DAB8F8005045B1FFF750FF06F0B2F94D
:100420000028D2D1FFF766FFF3E7019B08483A4660
:100430004FF400614BF040FA041E00DCFEE7064B6F
:10044000A8F80040A9F800501D80BCE7A20B0020CE
:10045000A0030020A00B00209E030020F8B5264D2D
:10046000264E04464718A74245D923780D2B20D0A5
:1004700010D8082B10D00A2B1BD02B88B3F5FF7F88
:1004800037D801212046FFF74BFF2B885A1C2A80C2
:1004900022780CE07F2BF0D12B8853B3184803212E
:1004A000FFF73EFF2B88013B9BB22B800022F254CA
:1004B0001FE014480221FFF733FF2B88ABB1002265
:1004C000F2549446591E705C0A2801D00D2804D1BC
:1004D0008BB2012206F803C0F4E702B12B8013B1FE
:1004E000304601F085FF00232B8007480221FFF7EB
:1004F00017FF0134B7E7F8BD9C0300209C010020E2
:1005000048CB04004DCB04004BCB0400FFF7F2BEF8
:1005100007B50A49019000230B8009490B8009495E
:100520000B8009490B8006F005F9019A074910462E
:1005300003B05DF804EB01F059BF00BF9C0300203D
:10054000A00B0020A20B00209E03002099030000B6
:10055000704770B505460E463146284605F02CFA20
:1005600006F0D4F90446FFF7D3FF05F04DFA18B1B1
:10057000204606F0D1F9EFE7204606F0CFFB2046F3
:1005800005F048FAF1E700290CBF07202320704747
:100590000068704708B5006806F0C2F9002008BD81
:1005A0001C3004F01DBB08B5006806F0B7F9002048
:1005B00008BD183003F04EBE203004F09DBC5C3006
:1005C00003F0BCB8603004F015B908B54BF01BF966
:1005D000B0FA80F0400908BD2DE9F04702298CB03F
:1005E00007460D46904641D9506803A906F0EEF93A
:1005F000044678B9023DEEB208F1040A0DF11C0977
:1006000005465AF8040F494622F0AAFF0135EDB21B
:10061000044618B120460CB0BDE8F087B54203D0BF
:10062000132D09F10109ECD1D8F8006010493046CA
:10063000FFF7CBFF07AA58B10E4B0093386801971C
:100640002B4603A906F054FB041E08BF2424E1E74F
:1006500009493046FFF7B9FF30B138682B4607AA81
:1006600003A906F04AFBD5E72324D3E70724D1E703
:100670005DDF04003D27000013D70400012937B5D2
:1006800005461C460BD110680DF1060122F0B2FEA2
:1006900018B9BDF806102868A04703B030BD072080
:1006A000FBE7012937B505461C460BD110680DF153
:1006B000070122F055FF18B99DF807102868A047D8
:1006C00003B030BD0720FBE7014BFFF7EABF00BFD7
:1006D0004F700000014BFFF7E4BF00BFB370000094
:1006E000024B186800B9FEE7704700BFA40B00205A
:1006F00010B5836000230446C0E90012C360037490
:10070000014680611C3004F0FDF8214604F1200010
:1007100004F0FEFA20680449C4E91744224606F0B2
:100720007CFD204610BD00BF8527000070B506681F
:100730000D4630460849FFF748FF044618B101232B
:100740002B70002070BD05493046FFF73EFF08B111
:100750002C70F6E72320F5E74FCB040056CB0400BE
:1007600070B506460C4600682F214BF03FF8054651
:1007700080B104F10801013022F0F2FE58B9237A69
:10078000013B3F2B08D8287030682146BDE87040F7
:1007900022F0CABD172070BD0720FCE709680023BE
:1007A00030B5136001394FF47A730A2411F8010F40
:1007B000E8B1A0F13005092D11D8B3F57A7F02BF59
:1007C00010686043106008781568303803FB0050EB
:1007D000B3F57A7F1060E9D0B3FBF4F3E6E72E2897
:1007E00004D1B3F57A7F01D16423DFE7072030BD60
:1007F000F0B5054691B016460C4609B907200AE047
:10080000176841493846FFF7E0FE014628B12868DD
:1008100006F07DFA002011B0F0BD382202A84AF09F
:10082000C1FE012C1ED939493846FFF7CEFED0B1A2
:10083000706802A906F0CAF80028ECD1286806F012
:1008400085F802A90746706806F0C0F80028E2D1D2
:10085000002FD3D002A9384606F0B0F800284FD1B7
:100860007F69F5E70124306806A906F0AFF8002893
:10087000D1D1012C3AD970680DA922F0BBFD002816
:10088000C9D1022C32D0B0680DF1360122F0B2FD90
:100890000028C0D1032C29D00EAA06F10C0128464D
:1008A000FFF77CFF0028B6D1042C1FD030690DF172
:1008B0003E0122F055FE0028ADD19DF83E30B3FA3E
:1008C00083F35B09052C8DF83F300FD001AA06F1A8
:1008D00014012846FFF762FF00289CD1019BB3F565
:1008E000803F8BD2062CADF83C3087D1084B0A9361
:1008F000084B286802A9CDE90B3506F003FA8AE710
:10090000023C0836E4B2AEE75ECB040063CB0400E1
:10091000911700002918000010B5044686B0B1B147
:100920001068694606F052F878B94FF45073ADF884
:1009300010309DF81230206823F0030343F00303C6
:1009400069468DF8123006F005F806B010BD072094
:10095000FBE71FB5044651B11068694606F036F84A
:1009600018B92068694605F0FAFF04B010BD0720E9
:10097000FBE71FB5044651B11068694606F026F83A
:1009800018B92068694605F0F3FF04B010BD0720D0
:10099000FBE71FB5044651B11068694606F016F82A
:1009A00018B92068694605F0E8FF04B010BD0720BB
:1009B000FBE700002DE9F04F01F1FF3A5FFA8AF3FF
:1009C0000F2BC1B007460E46904621D80DF1100BF3
:1009D0000025D94658F825005946ECB205F0F6FF37
:1009E00098B90134E4B2A64208D8A6420ED15445C3
:1009F00010D05445386817D103AB16E001350F2DE0
:100A00000BF1100BE6D12C46EFE70CB1544501D0A9
:100A1000072006E058F8240003A922F0B5FD0028BD
:100A2000E7D041B0BDE8F08F0023054A009201975E
:100A30002246494605F0D5FF002808BF2420F0E7EC
:100A40000516000070B5064615460C4661B107490B
:100A50001068FFF7BAFD38B1611E2A1D3046C9B2D1
:100A6000BDE87040FFF7A6BF232070BD6ECB040029
:100A70002DE9F04390F81090A1B004460D461746BA
:100A80000026F3B299451BD9E368386853F836104D
:100A9000FFF79BFD4FEAC60801360028F1D06A46F1
:100AA0002946384622F03FFDE36860694344691EE9
:100AB0005B6801AAC9B29847002021B0BDE8F08365
:100AC0002320FAE7D0E9013018470EB403B503AA92
:100AD00052F8041B0192FFF7F5FF02B05DF804EB3A
:100AE00003B07047F8B5074F05460C468E18B44260
:100AF00006D014F8012B39462846FFF7E6FFF6E743
:100B0000F8BD00BF82CF040010B58AB00446282289
:100B10000846694605F05FFF03496A462046FFF72D
:100B2000D4FF0AB010BD00BFA0CB040013B5CC8821
:100B30004B880A8864BAA4B20194898849BA89B2F8
:100B40005BBA52BA00919BB2024992B2FFF7BDFF65
:100B500002B010BD77CB040013B50B460446064A1D
:100B6000062168464AF00EFE044A69462046FFF711
:100B7000ACFF02B010BD00BF88CB04009D1B050078
:100B80000CB473B506AC054654F8046BFFF7E4FFEC
:100B90002246314628460194FFF794FF02B0BDE893
:100BA000704002B0704700000EB417B505AA0446A5
:100BB00052F8041B0192FFF785FF04492046FFF716
:100BC00084FF03B0BDE8104003B070478ECB040033
:100BD00070B505460C4661B124290FD0084605F0D2
:100BE00093FE2246034606492846BDE87040FFF7BB
:100BF000DBBFBDE870400349FFF7D6BF70BD00BF43
:100C000096CB040091CB040030B50446A5B00D4648
:100C100001B9FEE74FF4C071284607F033FAB0F58A
:100C2000C07F30D2202304AA0DF10F01284622F004
:100C300033FB48BB9DF80F30F3B1164B16490093B8
:100C400004980C23462222F002FB9DF80F10034665
:100C5000A0B182685B68551004EB6200D20748BF00
:100C6000625901F1FF3148BFD358C9B205AA98476C
:100C700050B99DF80F303BB925B030BD04AA2046CD
:100C8000FFF7F6FEF4E7062001462046FFF7A0FF37
:100C9000F2E700BF91050000C4D80400034A044BEA
:100CA000002914BF11461946FFF77EBFA3CB0400ED
:100CB00022D4040037B505460C46104649B92868C9
:100CC00005F060FE01462846FFF7E8FF204603B026
:100CD00030BD0DF10701FFF729FD04460028F5D1CD
:100CE0009DF80710286805F051FEEFE737B5054677
:100CF0000C46104669B9286805F00DFF10B1286848
:100D000004F0DAFA01462846FFF7C8FF204603B090
:100D100030BD0DF10701FFF709FD04460028F5D1AC
:100D20009DF807201AB92868114605F0EFFE9DF8D6
:100D30000710286805F0F5FE04460028E6D19DF866
:100D40000730002BE2D0034928682A4605F0DEFE72
:100D5000DCE700BF4919000037B505460C461046D0
:100D600049B9286806F069F901462846FFF796FF59
:100D7000204603B030BD0DF10701FFF7D7FC044654
:100D80000028F5D19DF80710286806F05BF90446A5
:100D9000EEE700002DE9F04FDFF8A090DFF8A0B0FB
:100DA00085B005460E461C46174603F1FF3802EB98
:100DB000810A57451CD057F8043B18F8012F0392BD
:100DC000184602934AF031FD039A029B023090428A
:100DD00006D8C2F1010259462846FFF776FEE8E739
:100DE00000934946134628465242FFF76EFEE0E75D
:100DF0001049DFF84490DFF84C802846FFF7D4FE16
:100E00002644B4420ED049462846FFF75EFE14F849
:100E1000017B002FF5D041462846013FFFF755FEE4
:100E2000FFB2F6E70449284605B0BDE8F04FFFF7EA
:100E3000BBBE00BF5FD20400DE200500B1CB0400C2
:100E4000ABCB0400C6210500024B034A0821FFF783
:100E5000A1BF00BF84DE040064DE040010B50446B8
:100E600086B059B110680DF1170122F079FBB0B9C5
:100E70009DF817301F2B11D801219940094B019380
:100E800000232068029400934FF6FF7206F0A8F842
:100E900028B92046FFF7D8FF242000E0072006B03D
:100EA00010BD00BF31280000F0B585B00023054615
:100EB0001746ADF80E300C46002936D0234910688D
:100EC000FFF783FB064650B1012C3CD978680DF141
:100ED0000E0122F08FFA002833D005B0F0BD034692
:100EE00057F823000DF10D0122F03AFB0028F4D150
:100EF0009DF80D101F2916D801248C40AEB1144B5B
:100F0000144A02212846FFF745FF134BBDF80E2077
:100F100028680095214605F02EFE0028DDD124200A
:100F2000DBE70223DCE70720D7E72846FFF78CFF43
:100F30000A4BBDF80E2028680095214605F017FEE3
:100F4000EBE7022CEDD10024D9E700BFB8CB0400B9
:100F500014DC04000CDC0400251A00003128000019
:100F600070B50E4E04460025A95920460C35FFF7F2
:100F70001BFEB5F5527FF7D1094E0025227CEBB25E
:100F80009A4208D9E268314652F833202046FFF7EA
:100F90000BFE0135F2E7002070BD00BFC4D804008D
:100FA000A0CB040030B5044685B00D4639BB0068BF
:100FB00001A905F0E9FBE8B912492046FFF7F4FD65
:100FC000BDF8042010492046FFF7EEFD9DF80C20E7
:100FD0000E492046FFF7E8FDBDF806200C492046E3
:100FE000FFF7E2FD029A0B492046FFF7DDFD284698
:100FF00005B030BD08492046FFF7D6FDF7E72325A9
:10100000F5E700BFBFCB0400CCCB0400DDCB040070
:10101000EACB0400FCCB04000ECC040038B5054636
:101020000C46006821B1BDE83840116805F027BFC3
:1010300005F021FF034902462846FFF7B5FD20468B
:1010400038BD00BFA0CB0400F0B58DB0044602A9A6
:101050000068144D144F05F09EFDBDF8082013499B
:101060002046FFF7A1FDBDF80A2011492046FFF7F1
:101070009BFD09262B680CAA13446A680CA90A4434
:10108000204632F8282C009233F8283CAA683946CA
:10109000FFF78AFD013E05F10C05EBD130460DB09E
:1010A000F0BD00BFF8DD040033CC040020CC040008
:1010B0002ACC040037B5054679B900680DF107015F
:1010C00004F060F9044628B99DF907200A4928462A
:1010D000FFF76AFD204603B030BD10680DF107012F
:1010E00022F0BDF904460028F4D19DF907102868C4
:1010F00004F05CF90446EDE787CC040037B50546FB
:101100000C4669B9006805F0F5FB4FF47A720E4998
:10111000B0FBF2F22846FFF747FD204603B030BD92
:1011200001290FD1106801A922F02EFA04460028E7
:10113000F3D1019B28684FF47A71594305F0DFFB26
:101140000446EAE70724E8E7E7CB040038B50C4695
:101150000546FFF7D9FC228A1C492846FFF7B5FC53
:10116000A37C1B49032B96BF1A4A1B4A52F8232023
:101170002846FFF7AAFCE27C184902F00102284643
:10118000FFF7A3FCA37CD3B9E37C9B0711D51449DB
:1011900062692846FFF799FC04F118012846FFF719
:1011A000B3FCA37C032B04D1628D0E492846FFF7C4
:1011B0008CFC28460C49BDE83840FFF7F5BC228D71
:1011C0000A492846FFF781FCEBE700BFAFD20400D5
:1011D0009FCB04008CDE040066CB04003DCC0400F1
:1011E0004ACC040069CC04009D1B05005DCC0400C2
:1011F00010B500238EB0CDE901330446206801AA62
:1012000003A905F0DDFF20B903A92046FFF79EFFE3
:10121000F4E700200EB010BD37B505460C4679B98D
:101220000068694605F036FC694628460822FFF743
:1012300059FC04492846FFF7B7FC204603B030BDEF
:101240000724FAE79D1B050038B505460C4679B121
:1012500008491068FFF7B9F950B1012C08D105F021
:101260008EFC054902462846FFF79EFC002038BD4B
:101270000720FCE778CC0400E7CB040073B50546F3
:1012800014460E4679B900680DF1070104F0ACF878
:10129000044628B99DF9072014492846FFF784FC25
:1012A000204602B070BD12491068FFF78EF9D0B128
:1012B000012E0DF1070109D1286804F095F80446C4
:1012C0000028EDD19DF907200A49E6E7606822F081
:1012D000C6F804460028E3D19DF90710286804F0F9
:1012E0008DF80446DCE70724DAE700BF7ECC040073
:1012F0008ECC0400E7CB040070B504460D4659B906
:10130000006805F01FFB28B10E492046FFF74CFC92
:10131000284670BD0C49F8E716680A493046FFF7C1
:1013200054F9054628B101212068BDE8704005F058
:10133000FDBA05493046FFF748F908B12946F3E7F9
:101340000725E5E796CC040099CC04002DE9F0418F
:10135000054617460C4681B90068334F05F0F6FA8A
:101360000646002E37D031462846FFF7CDFB3946DA
:101370002846FFF719FC7669F3E716682B493046D3
:10138000FFF723F938B1611E3A1D2846C9B2BDE8FE
:10139000F041FFF7C1BA26493046FFF716F98046FB
:1013A00038B1611E3A1D2846C9B2BDE8F041FFF7C9
:1013B000D0BA20493046FFF708F9074670B12868CF
:1013C00005F030FD01462846FFF79EFB16492846EA
:1013D000FFF7EAFB44462046BDE8F0811649304657
:1013E000FFF7F3F8044660B1286805F013FD0146E5
:1013F0002846FFF789FB0C492846FFF7D5FB3C46FA
:10140000E9E70E493046FFF7E0F858B1286805F0E3
:1014100005FD01462846FFF777FB03492846FFF7FD
:10142000C3FBD8E72324D6E79D1B05009ECC040010
:10143000A2CC0400A6CC0400B0CC0400B5CC0400BF
:101440002DE9F041064690460C4681B90068324FBE
:1014500005F08AFA0546002D47D029463046FFF7A9
:1014600053FB39463046FFF79FFB2D69F3E71568BC
:101470002A492846FFF7A9F840B1611E08F1040285
:101480003046C9B2BDE8F041FFF773BA2449284697
:10149000FFF79BF840B1611E08F104023046C9B263
:1014A000BDE8F041FFF775BA1E492846FFF78DF8F1
:1014B000074640B1611E08F104023046C9B2BDE8DA
:1014C000F041FFF7F7BB18492846FFF77EF80446BE
:1014D00070B1306805F0AAFC01463046FFF714FBF6
:1014E0000D493046FFF760FB3C462046BDE8F081E1
:1014F0000E492846FFF769F858B1306805F09AFCA4
:1015000001463046FFF700FB03493046FFF74CFB2E
:10151000EBE72324E9E700BF9D1B05009ECC0400F8
:10152000A2CC0400BBCC0400C7CC0400CDCC04008A
:1015300037B504466946006805F0D3FC0546E0B9B6
:10154000009A0F492046FFF72FFB9DF804200D4914
:101550002046FFF729FB9DF805200B492046FFF7A1
:1015600023FB9DF8062009492046FFF71DFB9DF847
:10157000072007492046FFF717FB284603B030BD78
:10158000D3CC0400E4CC0400F9CC0400F2CC040079
:101590000ACD040038B505460C4649B9006805F087
:1015A000B5FC044902462846FFF7FEFA204638BD3E
:1015B0002324FBE71DCF04002DE9F04105469DF8EB
:1015C00018701C460E4699B93B460C49DFF830802E
:1015D000FFF7EAFA04EB0717BC4209D02146284678
:1015E000FFF792FA41462846FFF7DEFA1034F3E798
:1015F00031462846BDE8F041FFF7EABA1FCD0400A6
:101600009D1B050010B49DF8044001945DF8044B47
:10161000FFF7D2BF37B5002304468DF804300D46DE
:1016200049BB006805F0B6FBC2078DF80400C3B2E1
:1016300018D4980709D52B492046FFF746FA9DF89C
:1016400004305B0707D5284902E05907FBD4274936
:101650002046FFF73AFA26492046FFF7A5FA284622
:1016600003B030BD23492046FFF72FFA9DF8043020
:101670009A07E0D4E3E715681C492846FEF7A5FF62
:1016800030BB013D0246014615F8013F5BB16E2BB0
:1016900005D0722B05D0642B21D10121F4E7012262
:1016A000F2E70120F0E728B19DF8043043F0010390
:1016B0008DF8043029B19DF8043043F002038DF811
:1016C00004302AB19DF8043043F004038DF804304F
:1016D0009DF80410206805F06CFB0546BFE7072560
:1016E000BDE700BFE8CB0400B9D30400C621050064
:1016F0009D1B05002EE1040038B505460C4661B976
:101700000749FFF7E2F907492846FFF7DEF90649DE
:101710002846FFF749FA204638BD2324FBE700BFDF
:1017200072CB040034CD0400AAE2040038B50546AB
:101730000C46006821B1BDE83840116805F082BB55
:1017400005F07CFB034902462846FFF72DFA2046A8
:1017500038BD00BFA0CB040037B54A8A08320C461A
:10176000054692B20849FFF7B0F921462846FFF72F
:10177000CBF9238A0093A28AA37D04492846FFF768
:1017800013FA03B030BD00BF39CD040048CD0400CA
:101790000B4601461846FFF7DFBF000037B50C4681
:1017A0000A884B881C490546FFF78FF922889AB1B1
:1017B000237B8BB963889A420ED3D11A4FF47A7384
:1017C0004B430A2193FBF2F32846B3FBF1F201FBF2
:1017D00012331249FFF779F962888AB16368608928
:1017E00001904FF47A714B43B3FBF2F2B2FBF1F389
:1017F00001FB132200920A4922892846FFF765F966
:1018000028460849FFF7D0F90021284603B0BDE873
:101810003040FFF7DDB900BF68CD040095CD04006E
:10182000ADCD04009D1B05000B4601461846FFF791
:10183000B5BF00002DE9F84F0D463949394F044630
:10184000FFF7B2F92C2639462046FFF73EF9013E54
:10185000F9D1AA883449334F2046FFF736F91C26C0
:1018600039462046FFF731F9013EF9D12C49DFF81E
:10187000C8802046FFF798F91027AB88A7F110061B
:10188000B3423ED941462046FFF71FF9B146AB8827
:101890004B452AD92B68254913F809202046FFF724
:1018A00014F909F10109B945F1D141462046FFF784
:1018B0000CF9DFF88890DFF888A0DFF888B0AB88F3
:1018C000B3421CD92B689A5DA2F120035E2B11D87C
:1018D00059462046FFF7F9F80136BE42EFD141469E
:1018E0002046FFF761F91037C7E711492046FFF797
:1018F000ECF8D6E751462046FFF7E7F8ECE7494613
:10190000F9E70C4E532531462046FFF7DEF8013D3E
:10191000F9D120460249BDE8F84FFFF745B900BFAD
:101920009D1B05005BCC0400D7CD0400E3CD040073
:10193000E9CD0400C62105005FD20400F4CD040007
:10194000F1CD0400EDCD040013460A4601461846C9
:10195000FFF770BFF8B5044600680F46164610F052
:10196000C1FE054604F0DEFF85420CD06FB1084988
:101970003068FEF72AFE40B1204606492A46FFF7A6
:1019800013F90020F8BD0C20FCE70720FAE700BFA0
:10199000F7CD0400A0CB040037B5054691B9006827
:1019A0000DF1060103F0D6FF044640B9BDF806204C
:1019B0009DF806300D49120A2846FFF7F5F8204633
:1019C00003B030BD1468204649F02FFF80B20228D2
:1019D00009D123786178286801EB032189B203F0EB
:1019E000C5FF0446EBE70724E9E700BFFFCD04008D
:1019F00010B50446006805F091FA034902462046F6
:101A0000FFF7D2F8002010BDB0D2040009B9FFF7EB
:101A1000DFB891F901300A780149FFF7C5B800BF76
:101A200004CE04000B4601461846FFF7EFBF000046
:101A300010B50446006805F0CEFA28B103492046E7
:101A4000FFF7B2F8002010BD0149F8E712CE0400FC
:101A500017CE040070B504460D46F1B9006805F0D4
:101A60003CFA0646042816D8DFE800F0030A0F11F6
:101A700013001F492046FFF797F83546284670BDEA
:101A80001C492046FFF790F8F8E71B49F9E71B4986
:101A9000F7E71B49F5E71B49F3E7156815492846A1
:101AA000FEF793FD20B12068BDE8704005F002BA52
:101AB00011492846FEF789FD20B12068BDE8704035
:101AC00005F0FDB90D492846FEF77FFD20B12068DD
:101AD000BDE8704005F0F6BA09492846FEF775FDE5
:101AE00020B12068BDE8704005F0FDBA0725C5E7C4
:101AF0001DCE040026CE04002FCE040035CE0400F7
:101B00003CCE040043CE0400F8B5054611B3176877
:101B100012493846FEF759FD064628B101212868CA
:101B2000BDE8F84005F045BA0D493846FEF74DFDD1
:101B3000044608B13146F2E70A493846FEF745FD4A
:101B400050B105F046FA084902462846FFF72CF83E
:101B50002046F8BD0720FCE72320FAE751CE040019
:101B60005ECB0400F7CD04001DCF040037B5054659
:101B700079B900680DF1070103F0FAFB044628B9B2
:101B80009DF907200A492846FFF70EF8204603B0C2
:101B900030BD10680DF1070121F061FC04460028FA
:101BA000F4D19DF90710286803F0C2FE0446EDE762
:101BB00087CC040038B505460C4641B904F0B2FEA6
:101BC0000A4902462846FEF7EFFF204638BD08497D
:101BD0001068FEF7FAFC30B106497C222846FEF771
:101BE000E3FF0024F1E72324EFE700BFA0CB0400CC
:101BF00057CE0400E7CB040037B5134605460C4624
:101C000071B9006804F02BFF082201462846FEF750
:101C100069FF0A492846FEF7C7FF204603B030BDDA
:101C200018680822694621F06CFC04460028F4D1AB
:101C30002868694604F017FF0446EEE79D1B05007F
:101C400037B5134605460C4671B9006805F07AF8B9
:101C5000082201462846FEF745FF0A492846FEF7B6
:101C6000A3FF204603B030BD18680822694621F062
:101C700048FC04460028F4D12868694605F066F857
:101C80000446EEE79D1B050070B5054686B0164676
:101C90000C4671B9006805F09AFA102201462846F0
:101CA000FEF720FF15492846FEF77EFF204606B0C6
:101CB00070BD012910680CD1102202A921F021FC6D
:101CC00004460028F2D1286802A905F084FA0446E7
:101CD000ECE70B49FEF779FC70B12868746805F0F1
:101CE000ADF80190286805F02DF80199024602AB85
:101CF000204604F0EFFDE3E70724D7E79D1B05002E
:101D00005BCE040030B5134685B005460C4671B96C
:101D1000006805F05FF8102201462846FEF7E2FE53
:101D20000A492846FEF740FF204605B030BD186836
:101D30001022694621F0E5FB04460028F4D128680A
:101D4000694605F04BF80446EEE700BF9D1B050011
:101D5000F0B50546134B144A144F154E8DB00221B1
:101D6000FFF718F8286805F08AFA0446B4B120464F
:101D70003022694604F031FE6A4639462846FEF7AD
:101D8000A4FE04F112003022694604F026FE6A46E1
:101D900031462846FEF708FF246BE7E720460DB0E2
:101DA000F0BD00BF94DC04008CDC04005ECE0400B7
:101DB00067CE040070B505460C4621B1BDE8704001
:101DC000064BFEF75BBC006805F029F904490246A2
:101DD0002846FEF7E9FE204670BD00BF27700000D0
:101DE0001DCF040070B505460C4621B1BDE870401A
:101DF000064BFEF743BC006804F052FE044902465D
:101E00002846FEF7D1FE204670BD00BFA96A00003B
:101E10004AD104002DE9F743054690460E460029B5
:101E200049D0D2F8009026494846FEF7CEFB50B183
:101E3000711E244B08F10402C9B22846FEF71EFCAD
:101E400003B0BDE8F08320494846FEF7BEFB0746D5
:101E500088B1022E2FD11D49D8F80400FEF7B5FB3A
:101E600020B1286804F0A0FD0020E9E7184B08F134
:101E700004020121E1E717494846FEF7A6FBE0B15D
:101E800028680DF1070104F094FD064670B13C4648
:101E9000114F9DF80720E3B29A4207D936F8132074
:101EA00039462846FEF711FE0134F2E70B49284671
:101EB000FEF77AFED8E70720C2E72320C0E700BF7D
:101EC0009ECC04009569000071CE040078CE040019
:101ED0009F6900005DDF040033D204009D1B0500F4
:101EE00037B505460C4679B1012918D110680DF1B6
:101EF000070121F0B4FA044670B99DF9071028686B
:101F000005F086F9044607E0006805F07DF905490B
:101F100002462846FEF748FE204603B030BD07249F
:101F2000FAE700BFE7CB040070B505460C4621B1C7
:101F3000BDE87040064BFEF7A1BB006805F094F8C1
:101F4000044902462846FEF72FFE204670BD00BF1A
:101F5000737000001DCF040037B505460C4669B10B
:101F6000012916D1106801A921F00EFB044668B9B9
:101F70000199286804F0B5FD044607E0006804F004
:101F8000ABFD054902462846FEF70EFE204603B08B
:101F900030BD0724FAE700BF1DCF04000CB473B5B1
:101FA00006AD044655F8046BFEF7D6FD2A463146C9
:101FB00020460195FEF786FD04492046FEF785FD83
:101FC00002B0BDE8704002B0704700BF8ECB040085
:101FD0002DE9F341054616460C4651B93C49FEF73A
:101FE000E3FD3C492846FEF7DFFD204602B0BDE890
:101FF000F081D2F8008036494046FEF7E6FA002824
:102000003ED0012C31D12868334EDFF8E48004F053
:10201000A3FD3249026804462846FEF7C5FD0D2798
:102020003368E35800937368424604212846FFF75B
:10203000B5FF013F06F10806F2D1626C2849294E2E
:10204000DFF8AC802846FEF7AFFD10273368E35871
:1020500000937368424604212846FFF79FFF013F23
:1020600006F10806F2D10024BFE7022C2ED11E494A
:102070007068FEF7AAFA48B3286804F071FDF2E729
:1020800014494046FEF7A1FA00B3012C13D1286889
:10209000164CDFF8608004F0B7FF09260746236876
:1020A0006268FB5A41462846FEF77EFD013E04F178
:1020B0000804F4D1D7E7022C08D10B497068FEF769
:1020C00084FA18B1286804F0A3FFCCE707248CE752
:1020D0007CCE040080CE040060DD040084CE0400C9
:1020E00097CE0400E0DC040013D7040098DC040061
:1020F00090CE0400A3CE0400137870B5144603F00C
:1021000001030B4A05460E46FFF748FF2378094AAC
:1021100031462846C3F34003FFF740FF2378064AC1
:1021200031462846C3F38003BDE87040FFF736BF51
:10213000AACE0400BBCE0400CACE040070B514467B
:1021400005460E4692F900301A4AFFF727FF6378DA
:10215000194A31462846FFF721FFA378174A31462E
:102160002846FFF71BFFE378154A31462846FFF75C
:1021700015FF2379134A31462846FFF70FFF63798D
:10218000114A31462846FFF709FFA3790F4A314625
:102190002846FFF703FF23890D4A31462846FFF7FB
:1021A000FDFEA37A0B4A31462846BDE87040FFF792
:1021B000F5BE00BFDACE0400EDCE0400FECE040072
:1021C0000FCF040020CF04002FCF04003ECF040027
:1021D00050CF040062CF040070B514460E4612784A
:1021E0000E490546FEF7E0FC63780D4A3146284665
:1021F00003F00303FFF7D2FE63780A4A314628460C
:10220000C3F38103FFF7CAFE6378074A31462846C5
:102210001B09BDE87040FFF7C1BE00BF77CF0400C7
:1022200087CF04009ACF0400ACCF04002DE9F84317
:102230000C461378DFF8549005461646114AFFF70E
:10224000ADFE2146104A2846FFF7A8FE04F1040817
:1022500006345FFA88F80027E4B2013772787B1EF3
:102260009BB29A420BD94A4641462846FEF788FC63
:1022700006EB470221462846FFF7AEFFEDE7BDE833
:10228000F88300BF2FCF0400BACF0400C5CF0400ED
:1022900070B5144605460E4613680E4AFFF77EFEDB
:1022A00023790D4A31462846FFF778FE63790B4AB9
:1022B00031462846FFF772FEA379094A314628467F
:1022C000FFF76CFEE379074A31462846BDE87040C7
:1022D000FFF764BEC8CF0400DCCF0400F0CF0400D9
:1022E000EACF040000D0040070B5144605460E463F
:1022F00013681A4AFFF752FE6368194A31462846A6
:10230000FFF74CFEA368174A31462846FFF746FE02
:10231000E368154A31462846FFF740FE2369134A11
:1023200031462846FFF73AFE6369114A314628468E
:10233000FFF734FEA3690F4A31462846FFF72EFE09
:10234000E3690D4A31462846FFF728FE236A0B4A07
:1023500031462846BDE87040FFF720BE17D0040084
:102360002DD004003CD004004CD004005ED004000A
:1023700074D0040085D0040098D00400AFD00400CD
:1023800070B5144612880D46C2F348120C49064631
:10239000FEF70AFC14F8023B0A4A2946304603F0CD
:1023A0001F03FFF7FBFD29463046074AFFF7F6FDFE
:1023B000291D22463046C9B2BDE87040FFF79CBED9
:1023C000C1D00400F4D10400D1D0040010B5054CF4
:1023D00013460A4601462046FEF78AF9024B1C6066
:1023E00010BD00BFA80B0020A40B0020FFF7EEBF1C
:1023F00007B50190FEF774F9019903B05DF804EB9D
:10240000FEF702BC0822FEF76DBB000030B587B0B6
:10241000044601A9006804F086FD054618BB13496F
:102420002046FEF752FB01A92046FFF7EBFF1049BB
:102430002046FEF7B9FBBDF80C200E492046FEF7FA
:10244000B3FB9DF811200C492046FEF7ADFB9DF82B
:1024500012200A492046FEF7A7FB9DF813200849E1
:102460002046FEF7A1FB284607B030BDD7D00400B8
:102470009D1B0500E2D00400EBD00400FFD0040057
:1024800014D104002DE9F04FDFB01F4600230446AD
:102490001646ADF80E300D46002940F01F819349D5
:1024A000FEF713FB07F110012046FEF72DFB9049C4
:1024B0002046FEF70AFB304604F065FB074630462F
:1024C00004F063FB381A87B2A946D7B1102F304603
:1024D000B84628BF4FF0100804F057FB4844434665
:1024E00081B204AA304604F054FBA7EB0807424629
:1024F00004A92046C844FEF7F5FABFB21FFA88F9CE
:10250000E3E77C49DFF830A27B4F2046FEF74CFB27
:1025100008AA0DF10E01304604F0E8FB002840F057
:10252000DA809DF82030132BF2D801A252F823F064
:10253000812500009B250000A9250000BD25000085
:10254000C3250000D7250000EB250000FF25000073
:102550001726000067260000112500001125000045
:1025600011250000112500007B26000083260000B5
:102570008B260000CD26000011250000D12600008A
:102580005E492046FEF7A1FA09A92046FFF73AFF67
:1025900039462046FEF708FBBAE7BDF82420584923
:1025A0002046FEF701FBB3E720465649FEF7FCFA4A
:1025B00009AA04212046FFF79FFDA9E7099A52497D
:1025C000EEE720465149FEF7EFFA09AA042120461A
:1025D000FFF7B4FD9CE720464D49FEF7E5FA09AA4E
:1025E00004212046FFF722FE92E720464949FEF7E4
:1025F000DBFA09AA04212046FFF74AFE88E746498C
:102600002046FEF762FA9DF824200DF125012046B0
:10261000FEF768FABCE74149DFF8D8B02046FEF77C
:10262000C3FA3F4A0DF120084FF000099DF824003D
:102630001FFA89F108F11003884201937FF668AF11
:1026400004212046FEF79CFA08F105012046FEF71A
:102650005BFA59462046FEF7A7FA019B304A09F17A
:1026600001099846E2E720462E49FEF79DFA09AA9D
:1026700004212046FFF738FE4AE79DF824202A4926
:102680008EE7BDF8242029498AE729492046FEF72C
:102690008BFA0DF120084FF000099DF82410204B13
:1026A0001FFA89F2914208F1040B7FF631AF1A4606
:1026B00004212046FEF764FA08F1060206212046AE
:1026C000FFF75EFE09F10109D846E6E7514697E7B4
:1026D000099A184964E7172818BF05462946204675
:1026E000FEF776FA5FB0BDE8F08F00BF1CD10400A2
:1026F00048F004009D1B050081D1040033D1040083
:1027000042D10400D1D00400F4D1040051D104001E
:102710005FD1040066D1040073D1040083D10400AA
:10272000C5CF040095D10400A3D10400B7D10400A3
:10273000CCD10400EAD10400D9D1040010B404467D
:10274000184613460A4621465DF8044BFFF79ABE29
:1027500070B504460D460949FEF7B7F929462046EB
:10276000FFF750FE2A7A0649C2F30013204602F012
:102770000F02BDE87040FEF717BA00BF00D2040098
:102780001AD204000B4601461846FFF7E1BF0000CD
:1027900038B504460D4619B9BDE83840FEF718BAF9
:1027A00091F839201A49C2F34012FEF78EF905F16B
:1027B000080218492046FEF788F917492046FEF717
:1027C00084F905F119012046FFF71CFE1349204644
:1027D000FEF77BF96A8E12492046FEF776F9294604
:1027E0002046FFF70FFE95F836200E492046FEF7EB
:1027F0006CF995F937200C492046FEF766F995F8F3
:1028000038200A492046BDE83840FEF7CDB900BF60
:1028100031D2040037D2040047D20400181F05004B
:1028200040D204004AD2040052D2040059D204001B
:102830000B4601461846FFF7ABBF00002DE9F047F5
:1028400004468AB0002900F00C811668864930469B
:10285000FDF7BBFE0546002847D184493046FDF709
:10286000B4FE002847D10DF10601304620F0C2FD2C
:102870000546002840F0BF80BDF80610206802AA77
:1028800004F047FC0546002840F0B580BDF81A204A
:1028900077492046FEF788F9BDF81820754920468B
:1028A000FEF782F974492046FEF70FF902A9204687
:1028B000FFF7A8FD71492046FEF776F970492046DA
:1028C000FEF703F99DF82730DE0700F1C080980776
:1028D00040F195806B492046FEF7F7F89DF82730C8
:1028E0005B0740F1938068498DE0684B684A0D2191
:1028F0002046FEF74FFA2068DFF8D481DFF8D49144
:10290000DFF8D4A104F08BFB00260746B1B2B94230
:102910006CD2206802AA04F003FC00285FD19DF865
:1029200027301B075BD4BDF81A20002D59D049462B
:102930002046FEF7CAF8BDF8182051462046FEF79B
:10294000C4F8049A53492046FEF7BFF8059A514946
:102950002046FEF7BAF89DF81D204F492046FEF7A5
:10296000B4F89DF81C204D492046FEF7AEF89DF8BE
:1029700027204B4902F001022046FEF7A6F89DF8F9
:1029800027204749C2F340022046FEF79EF89DF8F3
:1029900027204349C2F380022046FEF796F89DF8AF
:1029A000262040492046FEF790F89DF827203E4912
:1029B000C2F300122046FEF788F8BDF824203649FD
:1029C0002046FEF782F839492046FEF77EF802A934
:1029D0002046FFF717FD36492046FEF7E5F8013699
:1029E00094E741462046FEF770F8F8E72349204671
:1029F000FEF7DAF8002528460AB0BDE8F087590747
:102A00003FF571AF2B492046FEF75FF820461B4982
:102A1000FEF7CAF89DF81C2027492046FEF7C4F8A7
:102A2000049A26492046FEF7BFF8059A2449204615
:102A3000FEF7BAF89DF81D2022492046FEF7B4F8AB
:102A40009DF91E2020492046FEF7AEF8D3E71F4926
:102A50002046FEF73AF89DF827309A073FF53AAF3F
:102A60003CE70725C7E700BF61D2040067D2040036
:102A70009DD20400AAD20400D7D004009D1B0500FB
:102A8000B5D20400E8CB0400B9D304004CDC040048
:102A900018DC040076D204007ED2040085D2040043
:102AA0008CD2040091D2040096D2040047D20400D4
:102AB0005ED20400C6210500BCD20400C9D20400C5
:102AC00014D10400EBD00400D5D204002EE10400A0
:102AD00033D2040052D204006CD204002DE9F0413C
:102AE0008AB000230446ADF8023059B116683B495C
:102AF0003046FDF76AFD054630B939493046FDF7E5
:102B000064FD38B9072066E0364B374A0921204674
:102B1000FEF740F9354E364FDFF8F480206801AA01
:102B20000DF1020104F0D1F900284FD1002D46D05B
:102B30009DF8243013F0080F14BF43225222394667
:102B40002046FDF7C2FFBDF8102041462046FDF7A4
:102B5000BCFF039A27492046FDF7B7FF9DF91D20CA
:102B600025492046FDF7B1FF9DF91E202349204647
:102B7000FDF7ABFF9DF82420214902F00102204619
:102B8000FDF7A3FF9DF824201D49C2F34002204613
:102B9000FDF79BFF9DF824201949C2F380022046CF
:102BA000FDF793FF17492046FDF78FFF01A9204647
:102BB000FFF728FC14492046FDF7F6FFAEE7BDF805
:102BC000102031462046FDF780FFA7E720460F4939
:102BD000FDF7EAFF00200AB0BDE8F08161D20400F1
:102BE00067D20400ECDD0400C8DD04006ED20400EE
:102BF000DED2040052D20400E6D20400EDD204007A
:102C00008CD2040047D204005ED204009D1B050054
:102C10006CD204002DE9F04F044687B0002900F083
:102C2000DC8015686E492846FDF7CFFC0646002873
:102C30006AD16C492846FDF7C8FC00286AD12846AD
:102C40000DF1020120F0D6FB0546002840F0BB80C4
:102C5000BDF80210206801AA04F0ABFA054600286E
:102C600040F0B1809DF814205F4902F00102204637
:102C7000FDF79AFF9DF81430DA0740F1A4809DF823
:102C80000E205A492046FDF78FFFBDF80C20584909
:102C90002046FDF789FF9DF80F20564992022046F5
:102CA000FDF782FF9DF814205349C2F340022046ED
:102CB000FDF77AFF9DF814309B0740F184804F495F
:102CC0002046FDF702FF01A92046FFF79BFB2046A7
:102CD0004B49FDF769FF9DF810204A492046FDF752
:102CE00063FF9DF8112048492046FDF75DFF9DF8E0
:102CF000122046492046FDF757FF9DF8132044490E
:102D00002046FDF751FF5EE0424B434A0921204631
:102D1000FEF740F82068DFF82081DFF82091DFF827
:102D200020A104F044FA002507465FFA85FB2068DD
:102D300001AA594604F03DFA00283BD1002E46D0A6
:102D40009DF80E2049462046FDF7BFFEBDF80C2039
:102D500051462046FDF7B9FE9DF80F202F49204629
:102D6000FDF7B3FE9DF810202D492046FDF7ADFE7E
:102D70009DF811202B492046FDF7A7FE9DF8122053
:102D800029492046FDF7A1FE9DF81320274920463A
:102D9000FDF79BFE26492046FDF797FE01A9204638
:102DA000FFF730FB9DF814202249C2F34002204671
:102DB000FDF7FAFE0135EBB29F42B6D2104920462C
:102DC000FDF7F2FE0025284607B0BDE8F08F5A4611
:102DD00041462046FDF779FEECE70725F3E700BF03
:102DE00061D2040067D20400FBD2040011CD0400BC
:102DF000AAD2040005D3040014D30400D7D00400E1
:102E00009D1B05001DD30400EBD00400FFD004007F
:102E100014D1040080DC04005CDC0400E6D2040071
:102E2000EDD204007ED20400F4D2040052D2040099
:102E300047D2040009CE040033D204004BD2040070
:102E40006CD2040038B505460C4641B9006890477D
:102E5000044902462846FDF7A7FE204638BD072450
:102E6000FBE700BF1DCF04002DE9F04F05468FB0F2
:102E70000C46B9BB0068DFF898A0DFF8989004F022
:102E8000CEF8A0460646A3461FFA88F7BE4235D9BB
:102E90002868ADF806B006AA394604F041F9F0B941
:102EA0009DF83730C3F3C0021B0718D4ADF80620D5
:102EB000286802AB0DF10602394604F038F970B902
:102EC000BDF8282051462846FDF7FFFD02A92846F7
:102ED000FDF71AFE49462846FDF766FEE8E708F1C9
:102EE0000108D1E708491068FDF76FFB50B1611E7A
:102EF000064AC9B22846FFF7A5FF044620460FB090
:102F0000BDE8F08F2324F9E785D604003170000076
:102F100026D304009D1B050070B51646154A0446CD
:102F20000D46FFF78FFF10B90025284670BD2946D2
:102F3000114B32462046FDF7B4FB05460028F3D07E
:102F400036680E493046FDF740FB40B120680FF06F
:102F5000C1FB02460A492046FDF726FEE5E709497E
:102F60003046FDF732FB0028DFD020680FF0B6FBBB
:102F7000EFE700BF236A00002B6A00002DD3040096
:102F800037D304003CD3040037B505460C4661B185
:102F9000012914D1106801A920F0F6FA044658B9A5
:102FA00001992868069B984706E0006898470549FC
:102FB00002462846FDF7F8FD204603B030BD072441
:102FC000FAE700BF1DCF040007B5044B0093044B84
:102FD000FFF7DAFF03B05DF804FB00BF3B6D0000B4
:102FE000336D000007B5044B0093044BFFF7CCFF93
:102FF00003B05DF804FB00BF8B700000837000001D
:10300000F7B50139CCB2012C0646154618D8176819
:103010000C493846FDF7D9FA48B10B4B00930B4BDE
:103020002A1D21463046FFF7AFFF03B0F0BD084927
:103030003846FDF7CAFA18B1064B0093064BEFE786
:103040000720F2E746D304009B6E0000936E000059
:103050004ED30400AD6E0000A56E0000F7B5164615
:103060001A4605460F46FFF7EDFE044668B1012FEC
:103070000ED130680DF1070120F072FA044620B934
:103080009DF807102868089B9847204603B0F0BDBC
:103090000724FAE707B5044B0093044BFFF7DEFF64
:1030A00003B05DF804FB00BF6170000059700000C0
:1030B00007B5044B0093044BFFF7D0FF03B05DF856
:1030C00004FB00BF9B7000009370000007B5044B29
:1030D0000093044BFFF7C2FF03B05DF804FB00BF91
:1030E000F9700000F170000007B5044B0093044B29
:1030F000FFF7B4FF03B05DF804FB00BF09710000E7
:103100000171000007B5044B0093044BFFF7A6FFC5
:1031100003B05DF804FB00BFAB700000A3700000BB
:10312000F7B50139CCB2012C0646154618D81768F8
:103130000C493846FDF749FA48B10B4B00930B4B4D
:103140002A1D21463046FFF789FF03B0F0BD08492C
:103150003846FDF73AFA18B1064B0093064BEFE7F5
:103160000720F2E75AD30400F56A0000ED6A000078
:1031700058D30400056B0000FD6A000070B50646D8
:1031800015460C4661B108491068FDF71EFA48B1B2
:10319000611E2A1D3046C9B2BDE87040FFF7C0BFAE
:1031A000072070BD2320FCE761D30400006870474E
:1031B00070B5064E05460024A15928680C34FDF769
:1031C000F3FC902CF8D1002070BD00BF88DF040014
:1031D0000368186801B1116803F012BB10B50468E8
:1031E000206803F031FB034902462046FDF7DCFC72
:1031F000002010BDE7CB040010B40468034A044962
:10320000034620685DF8044B03F0C5BA2937000077
:10321000B13600000368186803F0C2BA10B504683C
:10322000206803F015FB022896BF044B044953F8AD
:1032300020102046FDF7B8FC002010BD7CDF040004
:1032400066CB040008B548F0DEFAB0FA80F0400919
:1032500008BD00002DE9F04F8DB00025DFF8E090AB
:10326000DFF8E0A0DFF8E0B00091804617462C467A
:10327000009B9D4252D21F2C5AD857F825604946D0
:103280003046FFF7DFFF50B1631C0CAA1444DBB2D9
:10329000092204F8202C0135EDB21C46E8E751461E
:1032A0003046FFF7CFFF28B1631C0CAA1444DBB2F1
:1032B0000B22EEE759463046FFF7C4FF28B1631CE6
:1032C0000CAA1444DBB20822E3E71B493046FFF79F
:1032D000B9FF28B1631C0CAA1444DBB21222D8E750
:1032E000019016493046FFF7ADFF18B3009B01353A
:1032F000EDB2AB421ED9C4F12002ADF80E2004AAF3
:10330000019B57F8250022440DF10E0120F0B6F87C
:1033100058B99DF80E301C44E3B2BCE7D8F8003031
:103320002246186804A903F085FA0DB0BDE8F08FB5
:103330000320FAE70720F8E7BBDE0400C9DE04003B
:103340009CDE0400A4DE0400AEDE04002DE9F041A2
:10335000012988B007460E46144601D8072035E0FB
:10336000102200210DEB020048F01CF92949606889
:10337000FFF768FFC8B10025D4F800802649404611
:10338000FFF760FF002832D0022EE7D07823032E0B
:1033900001931ED13B689DF818101868A268019B24
:1033A000F1B9294603F002FA1DE004A9201DFDF73A
:1033B000D7F9172808D1082260680DEB020120F028
:1033C000A0F818B902ADD7E70028D4D008B0BDE8FE
:1033D000F081E06801A920F0D7F80028DAD0F5E7FD
:1033E00004A903F0EEF90028F0D10020EEE70B4924
:1033F0004046FFF727FF0028B0D03B6818689DF8CB
:1034000018301BB104A903F0F3F9DFE7294603F0F4
:10341000E5F9DBE7BC2005009ECC040071CE04007A
:1034200070B5032988B00546144622D9106803A94F
:1034300020F0AAF8D8B960680DF1090120F090F8E1
:10344000A8B9A0680DF10A011FF0D4FF78B904AE45
:10345000E068314603F0BAFA48B928680096BDF82A
:103460000A309DF809200399006803F0CEF908B0EE
:1034700070BD0720FBE7000070B504298CB005463D
:1034800014462DD9106807A920F07EF830BB60687B
:103490000DF1170120F064F800BBA06806A91FF029
:1034A000A9FFD8B9E0680DF11A011FF0A3FFA8B970
:1034B00008AE2069314603F089FA78B9094B2868CB
:1034C0000395CDE90163BDF81A3000939DF81720EC
:1034D000BDF818300799006803F09CF90CB070BD76
:1034E0000720FBE7D537000030B5022989B0054633
:1034F00014461CD910680DF10A011FF07BFFA0B91A
:10350000606803A920F040F878B9A06804A903F026
:103510005DFA50B9074B286800930195039ABDF8EE
:103520000A10006804AB03F080F909B030BD072031
:10353000FBE700BFF93700002DE9F04F93B01646C6
:1035400000900D46002900F095801A22002103A862
:1035500048F028F80024DFF82891DFF828A1DFF8E8
:1035600028B1A046A5427CD956F824704946384671
:10357000FFF768FE90B1631CDBB29D427AD99DF8DB
:10358000242042F001028DF8242003A956F82300DC
:103590001FF030FFB0B313B0BDE8F08F514638468E
:1035A000FFF750FE60B1631CDBB29D4262D99DF80B
:1035B000242042F002028DF824200DF10E01E5E7EF
:1035C000019059463846FFF73DFEF0B1601CC0B28D
:1035D00085424FD99DF82420019B56F8200042F0E7
:1035E00004028DF824201022ADF80A200DF10A0102
:1035F0000DF111021FF042FF0028CCD1BDF80A30B6
:103600008DF810300234E4B2ACE71B493846FFF7BE
:1036100019FE60B1631CDBB29D422BD99DF82420BA
:1036200042F008028DF824200DF12201AEE701904E
:1036300012493846FFF706FEE0B1601CC0B2854271
:1036400018D92022ADF80A20019B56F820000AAABA
:103650000DF10A011FF012FF00289CD19DF80A808D
:10366000D0E7009B18680AAA434603A9006803F044
:10367000E6F890E707208EE7BBDE0400C9DE040011
:103680009CDE0400A4DE0400AEDE0400022998BF24
:10369000044B006894BF53F82120034A0349FDF707
:1036A00083BA00BF7CDF040066CB0400CCDE0400DC
:1036B0000B4601461846FFF7E9BF000070B5044607
:1036C0000E46006811491D46FDF7FFF9042E08D883
:1036D000DFE806F00313151719000D492068FDF700
:1036E000F4F925B1206808222946FDF7FBF9206886
:1036F0000849BDE87040FDF757BA0749EEE70749AA
:10370000ECE70749EAE70749E8E700BFDDDE040028
:10371000F3DE04009D1B0500FADE040003DF040055
:103720000DDF040012DF040010B4044618461346EF
:103730000A4621465DF8044BFFF7C0BF73B5064645
:1037400015460C4629B90A46FFF732FD232002B080
:1037500070BD0E4B00930C231A460D4928681FF0CC
:1037600076FD03460028F1D082685B68511006EBB5
:103770006200D20748BF725804F1FF3148BFD358E6
:10378000C9B22A1D02B0BDE870401847AD31000033
:1037900088DF0400F8B5144606460A4600680A4960
:1037A0000A4F1D46FDF791F92544AC42306805D01B
:1037B00014F9012B3946FDF788F9F6E7BDE8F84022
:1037C0000349FDF7F1B900BF1ADF040033D204004A
:1037D0009D1B050010B40446184613460A462146B0
:1037E0005DF8044BFFF7D6BF134600680A4601494F
:1037F000FDF7DAB928DF040013460A4601461846E9
:10380000FFF7F2BF0068704770B5064E054600240A
:10381000A15928680C34FDF7C7F9FC2CF8D1002019
:1038200070BD00BF6CE1040008B5682200210248A9
:1038300047F0B8FE002008BD100C002038B50F4D31
:103840000C4659B995F864301B0705D50C4900683A
:1038500005F12002FDF7A8F9204638BD116805F1F1
:10386000200003F039F804460028F5D195F86430BB
:1038700043F0080385F86430EEE700BF100C002029
:10388000A0CB040008B547F0BEFFB0FA80F04009B5
:1038900008BD000038B5044621B315681249284612
:1038A000FFF7F0FF30B1236810491868BDE83840D1
:1038B00002F0D2BF0E492846FFF7E4FF30B123687B
:1038C0000A491868BDE8384002F0DBBF09492846BC
:1038D000FFF7D8FF30B1236804491868BDE83840C5
:1038E00003F002B8072038BD49DF0400100C0020A7
:1038F00018E0040020E0040038B50446C1B11568A2
:103900000C492846FFF7BEFF30B123680A49186802
:10391000BDE8384002F0AEBF08492846FFF7B2FFC5
:1039200030B1236804491868BDE8384002F0B7BFD9
:10393000072038BD49DF0400100C002018E0040007
:1039400038B50F4D0C4659B995F86530DB0705D5EC
:10395000B5F84A200B490068FDF726F9204638BD26
:10396000106805F14A011FF045FD04460028F5D115
:1039700095F8653043F0010385F86530EEE700BF48
:10398000100C0020E7CB040038B50F4D0C4659B998
:1039900095F86430DB0905D0B5F848200B4900687C
:1039A000FDF702F9204638BD106805F148011FF007
:1039B00021FD04460028F5D195F8643043F08003DA
:1039C00085F86430EEE700BF100C00204AD10400F7
:1039D00038B50E4D0C4651B995F865301B0704D526
:1039E0002A6E0B490068FDF7DFF8204638BD1068E5
:1039F00005F160011FF0C8FD04460028F5D195F8D7
:103A0000653043F0080385F86530EEE7100C0020C0
:103A1000D5CF040038B50E4D0C4651B995F8643039
:103A20005B0604D56A6C0B490068FDF7BDF82046BB
:103A300038BD106805F144011FF0A6FD04460028BA
:103A4000F5D195F8643043F0400385F86430EEE733
:103A5000100C0020E7CB040038B50E4D0C4659B9C8
:103A600095F86430DB0705D5D5E900230A490068DD
:103A7000FDF79AF8204638BD106829461FF054FC1F
:103A800004460028F6D195F8643043F0010385F828
:103A90006430EFE7100C00209EE0040038B50F4DB5
:103AA0000C4659B995F864309B0705D5D5E9022332
:103AB0000B490068FDF778F8204638BD106805F11D
:103AC00008011FF031FC04460028F5D195F8643058
:103AD00043F0020385F86430EEE700BF100C0020CD
:103AE0009EE004007FB505460C46A1B9144E96F839
:103AF00064309B060CD513490068FCF7E6FF286884
:103B000006F13901FDF712F80F492868FDF74CF866
:103B1000204604B070BD1068694602F057FF0446A5
:103B20000028F5D1064A6B4603CB92F86430C2F800
:103B3000390043F02003C2F83D1082F86430E7E713
:103B4000100C002024E004009D1B05002DE9F04F1F
:103B500093B0804602920F46002900F0CD800024E9
:103B6000DFF8C8A1DFF8C8B1ADF814400125A146BF
:103B7000AF42029B40F29D8053F825605F4930467A
:103B8000FFF780FE40B19DF8143043F001038DF83B
:103B900014300135EDB2EBE751463046FFF772FEC7
:103BA00020B19DF8143043F00203F0E75946304647
:103BB000FFF768FE20B19DF8143043F00403E6E7F8
:103BC0004F493046FFF75EFE20B19DF8143043F0B8
:103BD0000803DCE74B493046FFF754FE20B19DF85F
:103BE000143043F01003D2E747493046FFF74AFE4E
:103BF00020B19DF8143043F02003C8E74349304614
:103C0000FFF740FE20B19DF8143043F04003BEE7BB
:103C10003F493046FFF736FE20B19DF8143043F09F
:103C20008003B4E73B493046FFF72CFE30B19DF8E6
:103C3000153043F001038DF81530AAE736493046B8
:103C4000FFF720FE20B19DF8153043F00403F2E7A2
:103C5000039032493046FFF715FE98B10135EDB2B9
:103C6000AF4249D90298039B50F825002022ADF8B5
:103C700016200DF116010AAA1FF000FCB0B99DF83C
:103C8000169086E726493046FFF7FCFD04460028DB
:103C900032D00135EDB2AF422ED9029B06A953F8BE
:103CA000250002F093FE00283FF473AF13B0BDE887
:103CB000F08F1D681B492846FFF7E4FD58B1D8F87E
:103CC0000030186804B106AC00944B460AAA05A956
:103CD00002F0ECFDEAE714492846FFF7D3FD58B19E
:103CE000D8F80030186804B106AC00944B460AAA14
:103CF00005A902F0E5FDD9E70720D7E738E0040081
:103D0000CED7040003D7040040E1040059E00400CA
:103D100006D7040070D6040064E00400C9DE040085
:103D20007420050049DF040018E0040048E00400A6
:103D300074D7040070B50D68DEB006460C46284600
:103D40001C49FFF79FFD60BB1B492846FFF79AFD02
:103D500070B3012529461CA808F0C6FBFE23606845
:103D6000ADF806301CAA00230DF106011FF086FBFA
:103D7000044690B9BDF80630ADF874311CA808F0BF
:103D8000C2FB98B102A91CA808F0E3FB336802A9A2
:103D9000186845B902F06EFD00B1044620465EB0D9
:103DA00070BD0025D6E702F07AFDF5E70720F4E7BD
:103DB0000724F3E749DF040018E00400022902D1D8
:103DC0001146FFF7B7BF07207047000070B51346D4
:103DD000114D06460C4679B995F86430DB0609D5D5
:103DE000006805F131010822FCF77CFE0B493068C0
:103DF000FCF7DAFE204670BD1868082205F1310193
:103E00001FF07FFB04460028F4D195F8643043F09E
:103E1000100385F86430EDE7100C00209D1B0500B1
:103E200070B51346104D06460C4671B995F86430CE
:103E30005B0708D510220068A918FCF753FE0B4950
:103E40003068FCF7B1FE204670BD10221868A91832
:103E50001FF057FB04460028F5D195F8643043F075
:103E6000040385F86430EEE7100C00209D1B05006C
:103E7000F8B504461546B1B9244991F8653098075C
:103E800008D520684C311022FCF72CFE2049206810
:103E9000FCF78AFE1D4A92F8653043F0020382F86F
:103EA0006530002008E0012907D11A49286810224E
:103EB0001FF027FB0028EDD0F8BD022923D11649B9
:103EC0001068FFF7DFFCF0B16F68104D95F86430B3
:103ED0001A0713D42368186802F0B0FF064695F855
:103EE0006430DB060DD42368186802F02BFF02460D
:103EF000084B3146384602F0EDFCDBE705F12006C1
:103F0000EDE7064AF4E70720D6E700BF100C0020D3
:103F10009D1B05005C0C00205BCE0400410C0020C2
:103F200038B50D460A88234904460068FCF7CDFDE4
:103F3000AB78D80703D520492068FCF7C6FDAB78DD
:103F4000990703D51D492068FCF7BFFDAB785A07D8
:103F500003D51B492068FCF7B8FDAB781B0703D5D8
:103F600018492068FCF7B1FDAB78D80603D516498F
:103F70002068FCF7AAFDAB78990603D513492068A1
:103F8000FCF7A3FDAB785A0603D511492068FCF76E
:103F90009CFDAB78DB0903D00E492068FCF795FD4A
:103FA000EB789B0705D520680B49BDE83840FCF746
:103FB0008CBD38BD33D2040061D60400B9D30400EF
:103FC0002EE10400EFCD040073E00400D1D304001F
:103FD0001F1E05005CCE04008228050038B591F84C
:103FE00064300C469907054605D5D4E902234D49AE
:103FF0000068FCF7D9FD94F86430DA0705D5D4E9F8
:10400000002349492868FCF7CFFD94F86530DB07A9
:1040100005D5B4F84A2045492868FCF7C5FD94F851
:104020006530180704D5226E41492868FCF7BCFDAD
:1040300094F86430590604D5626C3E492868FCF750
:10404000B3FD94F86430DA060DD53B492868FCF7D7
:104050003CFD286804F131010822FCF743FD374993
:104060002868FCF7A1FD94F864309B060CD5344910
:104070002868FCF72AFD286804F13901FCF756FD91
:104080002E492868FCF790FD94F8643058070CD549
:104090002C492868FCF719FD10222868A118FCF7A4
:1040A00021FD26492868FCF77FFD94F86430190744
:1040B00009D525492868FCF708FD2449286804F13A
:1040C0002002FCF771FD94F86430DB0905D0B4F8E8
:1040D00048201F492868FCF767FD94F865309A0767
:1040E0000DD51C492868FCF7F0FC286804F14C0148
:1040F0001022FCF7F7FC11492868FCF755FD94F8ED
:1041000065305B070CD514492868FCF7DEFC04F128
:104110005C012846FFF704FF08492868FCF744FDC6
:10412000002038BD75E004008CE00400A2E004002B
:10413000AEE00400C3E00400CDE004009D1B0500D8
:1041400024E00400DAE00400E7E00400A0CB04006F
:10415000F6E0040005E104000CE1040030B505467A
:10416000C1B071B903686946186802F075FB04466E
:1041700020B969462846FFF731FF0446204641B082
:1041800030BD012921D1146811492046FFF77AFB7F
:10419000D8B1204647F049FB80B2B0F5FE7F12D877
:1041A0002B686946186802F05EFB04460028E5D1DA
:1041B00028689DF8FE206946FCF794FC05492868AC
:1041C000FCF7F2FCDAE70324D8E70724D6E700BFC0
:1041D000C9DE04009D1B050030B50546C1B071B9AC
:1041E00003686946186802F04CFB044620B969462A
:1041F0002846FFF7F3FE0446204641B030BD0129B2
:1042000021D1146811492046FFF73CFBD8B1204664
:1042100047F00BFB80B2B0F5FE7F12D82B686946E1
:10422000186802F035FB04460028E5D128689DF89F
:10423000FE206946FCF756FC05492868FCF7B4FCEB
:10424000DAE70324D8E70724D6E700BFC9DE040075
:104250009D1B050073B5064615460C4629B9124943
:1042600002B0BDE87040FFF7B9BE104B0093104993
:1042700028680C2315221EF0EAFF034688B18268E5
:104280005B68511006EB6200D20748BF725804F118
:10429000FF3148BFD358C9B22A1D02B0BDE87040F3
:1042A0001847232002B070BD100C00200538000014
:1042B0006CE10400F7B51D460E4600232868019303
:1042C00001A917461FF096F8044680B9012F6AD954
:1042D0006A68013A12F8013F002B64D0722B05D8AE
:1042E000612B07D8432B48D0522B55D007242046AA
:1042F00003B0F0BD623B102BF8D801A151F823F0B8
:104300007143000067430000ED4200008543000058
:10431000ED420000ED420000ED420000ED420000E1
:10432000ED420000ED420000ED420000ED420000D1
:1043300053430000454300008F430000ED4200005E
:104340005D4300009DF8063043F001038DF8063010
:10435000C0E79DF8063043F00203F7E79DF806300A
:1043600043F00403F2E79DF8063043F00803EDE75D
:104370009DF8063043F01003E8E79DF8063043F05F
:104380002003E3E79DF8063043F04003DEE79DF8A5
:10439000063043F08003D9E79DF8073043F002036D
:1043A0008DF8073096E701983060A0E770B51346A6
:1043B000104D06460C4669B995F865305B0707D580
:1043C00005F15C01FFF7ACFD0B493068FCF7ECFB35
:1043D000204670BD0A4605F15C01FFF76BFF0446FD
:1043E0000028F5D195F8653043F0040385F8653071
:1043F000EEE700BF100C00209D1B05002DE9F04FDB
:10440000C1B0164600900D46002900F04481682294
:10441000002106A847F0C6F8DFF8AC92DFF8ACA29E
:10442000DFF8ACB201244FF00008A54240F216813B
:1044300056F8247049463846FFF724FAA0B10134F3
:10444000E4B2A54240F227819DF87C3043F001039D
:104450008DF87C3006A956F824001EF065FF002870
:1044600072D041B0BDE8F08F51463846FFF70AFAE6
:1044700060B10134E4B2A54240F20D819DF87C3078
:1044800043F002038DF87C3008A9E4E7594638462A
:10449000FFF7F8F988B10134E4B2A54240F2FB809D
:1044A0009DF87C3043F004038DF87C3010220AA97B
:1044B00056F824001FF025F8D1E778493846FFF771
:1044C000E1F980B10134E4B2A54240F2E4809DF804
:1044D0007C3056F8241043F008030EA88DF87C3089
:1044E00002F0FAF9BBE76E493846FFF7CBF970B135
:1044F0000134E4B2A54240F2CE809DF87C3043F016
:1045000010038DF87C3008220DF14901D0E7654990
:104510003846FFF7B7F9D0B10134E4B2A54240F212
:10452000BA809DF87C3056F8240043F0200302A99D
:104530008DF87C3002F04AFA002892D102AB03CB0E
:10454000CDF85100CDF855100134E4B26DE756496D
:104550003846FFF797F980B10134E4B2A54240F242
:104560009A809DF87C3043F040038DF87C3017A989
:1045700056F824001FF008F871E74C493846FFF759
:1045800081F980B10134E4B2A54240F284809DF803
:104590007C3043F080038DF87C3018A956F8240055
:1045A0001EF028FF5BE742493846FFF76BF960B120
:1045B0000134E4B2A5426ED99DF87D3043F0010389
:1045C0008DF87D300DF16201E8E73A493846FFF792
:1045D00059F958B10134E4B2A5425CD99DF87D3057
:1045E00043F008038DF87D301EA9C1E732493846F3
:1045F000FFF748F9B8B1631CDBB29D424BD9EA1A08
:10460000009806EB8303D2B21DA9FFF753FE0028E2
:104610007FF427AF9DF87D30023443F004038DF81A
:104620007D30E4B290E7019024493846FFF72AF93B
:10463000002830D00134E4B2A5422CD98022ADF854
:104640000820019B56F824006A4402A91EF016FFB8
:1046500000287FF406AF9DF8088075E73468184994
:104660002046FFF70FF940B1009B186820AA434687
:1046700006A9006802F01FF9F3E612492046FFF789
:1046800001F940B1009B186820AA434606A90068BA
:1046900002F01BF9E5E60720E3E600BFCED70400F1
:1046A00003D7040040E1040059E0040006D70400E9
:1046B00070D604001EE1040064E00400C9DE0400BA
:1046C00049DF040018E0040038E0040048E004007A
:1046D00074D704000068704770B5064E0546002484
:1046E000A15928680C34FCF75FFA3C2CF8D1002063
:1046F00070BD00BFB8E2040038B5056804462868FC
:1047000002F07EF9082201462846FCF7EBF9206802
:104710000249FCF749FA002038BD00BF9D1B050087
:1047200030B5144687B0B1B101290C4B056888BF7C
:10473000526803934FF000030293094B0193094B16
:1047400000930490084B2168286898BF002202F06B
:104750004DF907B030BD0720FBE700BF7D480000E2
:1047600073E204007BE2040068E2040008B5036819
:10477000186802F040F9002008BD000070B501295A
:1047800086B005460C4616461CD11022002102A810
:1047900046F008FF1549306847F035F8014648B93A
:1047A0002B68186802F030F9044600B9002420464E
:1047B00006B070BD02A93046FBF7D2FF88B92B685E
:1047C00002A9EEE769B90368186802F025F950B14B
:1047D000037A0093D0E9002305492868FCF7E4F93F
:1047E000E5E70724E3E71724E1E700BF2AE1040037
:1047F00084E2040073B5064615460C4629B90A46FC
:10480000FFF76AFF232002B070BD0E4B00930E49E4
:1048100028680C2305221EF01AFD03460028F1D05B
:1048200082685B68511006EB6200D20748BF72587D
:1048300004F1FF3148BFD358C9B22A1D02B0BDE808
:1048400070401847D5460000B8E2040010B504686F
:10485000084629B920460749BDE81040FCF7A4B92D
:1048600002F052F8044902462046BDE81040FCF729
:104870009BB900BF8EE204009BE204000B46014698
:104880001846FFF7E3BF00687047000070B5064E9A
:1048900005460024A15928680C34FCF785F9242C1E
:1048A000F8D1002070BD00BF34E3040030B5012909
:1048B00087B00546144620D91149106846F0A3FF79
:1048C000D8B98DF8100002A9201DFBF749FF172861
:1048D00004D16068082269461EF013FE58B92B689F
:1048E00018689DF810301BB9694602F0F5F902E02E
:1048F00002A902F0F6F907B030BD0720FBE700BFC0
:10490000F4E204000160704710B504468CB008461C
:104910002D22694602F063F8034920686A46FCF7D5
:10492000D4F80CB010BD00BFA0CB040039B10129F0
:1049300007D0013107D104490068FCF7C6B8034924
:10494000FAE70349F8E77047FAE20400FFE20400DF
:1049500004E3040030B50C4687B00546FFF7D4FFEA
:10496000617C11F0040F18BF702301AA16BF8DF8E7
:10497000043013460DF10503080744BF612003F816
:10498000010BC80644BF642003F8010B880644BF2E
:10499000632003F8010B480644BF722003F8010BA3
:1049A000C9091CBF6F2103F8011BA17CC80744BFC4
:1049B000732003F8010B880744BF6E2003F8010B36
:1049C000490744BF442103F8011B00219342197099
:1049D00003D009492868FCF778F8617C41F30101AC
:1049E000284649B2FFF7A2FFA28A04492868FCF7CB
:1049F000DBF807B030BD00BF9FCB0400AFD204008E
:104A000030B50D4685B00446FFF77EFF297D11F0D5
:104A1000080F18BF732301AA16BF8DF80430134680
:104A20000DF10503490744BF6E2103F8011B002166
:104A30009342197003D009492068FCF746F8297D94
:104A400041F30101204649B2FFF770FF6A8A044929
:104A50002068FCF7A9F805B030BD00BF9FCB04006B
:104A6000AFD2040038B50C4605464A6800681249C2
:104A7000FCF72BF8227A286804F10901FCF732F8D8
:104A80000E492868FCF721F894F80721286804F5F6
:104A90008471FCF727F894F80631DB0703D5084941
:104AA0002868FCF712F8B4F8002228680549BDE828
:104AB0003840FCF779B800BF0AE30400181F05006E
:104AC0000EE30400AFD2040010B588B00446002302
:104AD000094900680193FCF767F8236802AA18687F
:104AE00001A902F0DEF820B902A92046FFF732FF43
:104AF000F3E708B010BD00BF11E3040010B588B0A3
:104B000004460023094900680193FCF74DF8236827
:104B100002AA186801A902F0CDF820B902A920461E
:104B2000FFF76EFFF3E708B010BD00BF1BE3040002
:104B300010B5ADF5027D044600230A4900680093D4
:104B4000FCF732F8236801AA1868694602F0BBF83E
:104B500020B901A92046FFF785FFF3E70DF5027D97
:104B600010BD00BF23E3040030B5C3B0FF230446EB
:104B700000688DF8073000680DF1070302AA0021D4
:104B800002F084F8054648B920689DF8072002A97C
:104B9000FBF7A8FF03492068FCF706F8284643B056
:104BA00030BD00BF9D1B050038B505460C4649B910
:104BB000FFF78AFF2846FFF7A1FF2846FFF7B8FF57
:104BC000204638BD0549106846F01DFE20B928462C
:104BD000BDE83840FFF7C8BF0724F1E7C9DE04008D
:104BE00073B5064615460C4629B90A46FFF74EFE30
:104BF000232002B070BD0E4B00930E4928680C2391
:104C000003221EF024FB03460028F1D082685B6873
:104C1000511006EB6200D20748BF725804F1FF3111
:104C200048BFD358C9B22A1D02B0BDE8704018472A
:104C30008748000034E304000068704770B5064EF2
:104C400005460024A15928680C34FBF7ADFF542C0D
:104C5000F8D1002070BD00BF90E30400014651F878
:104C6000083B186802F0F6BA014610B451F8084B38
:104C7000034A034620685DF8044B02F0E6BA00BF21
:104C8000C94F000010B503460C46104621B1BDE8DF
:104C90001040191DFBF74ABD18681979FBF7FEFF94
:104CA000204610BD30B5022987B00446154612D102
:104CB000106801A901F08AFE58B9686805A91EF0BC
:104CC00099FB30B9214601AA51F8083B186802F057
:104CD000C6FA07B030BD0720FBE730B5022987B020
:104CE0000446154612D1106801A901F06FFE58B9AB
:104CF000686805A91EF07EFB30B9214601AA51F86B
:104D0000083B186802F0B1FA07B030BD0720FBE796
:104D100010B50123044601600371342200210830DC
:104D200046F040FC204610BDF7B530230D46164630
:104D30008DF8073000246127B4421AD001220DF10A
:104D40000701284601F023FFA0B99DF80730013381
:104D5000DBB25B2B07D07B2B09D03A2B08BF41235A
:104D60008DF8073001E08DF807700134E4E7302357
:104D7000F6E7002003B0F0BD2DE9F0419CB000241F
:104D800001230E468DF80930054603798DF8083069
:104D9000174621462C2204A8ADF80C4046F002FC30
:104DA000731E032B00F29F80022E10D9386808A9C9
:104DB00001F00CFE044630B978680DF132011EF0A6
:104DC00019FB044630B320461CB0BDE8F08124D066
:104DD000A0462B6802A9186802F029FA06460028A6
:104DE00000F08380012C3DD0022C0FFA88F840D0CF
:104DF00057F828100191084646F017FD019982B234
:104E0000304601F0C4FE044600285FD0304601F071
:104E1000B8FED8E7042E20D1022404F1010857F887
:104E200024403349204646F0EEFC48B957F82800A4
:104E300003A91EF0DFFA04460028C4D10124C8E704
:104E40002C49204646F0DFFC50B957F8280046F0C0
:104E5000ECFC0224ADF80C00BBE74FF00208B8E709
:104E60000024B6E70146BDF80C202846FFF75CFF9A
:104E7000C9E757F828704FF03208BDF80C302BB353
:104E800001230FAA0DF10E013846ADF80E801EF079
:104E9000F5FA04460028B9D1BDF80E200AB9072456
:104EA000B4E7BDF80C105300C8079BB244BF03F130
:104EB000FF339BB21F443046CB1A0FA9ADF80C301C
:104EC00001F065FE04460028D7D09FE7294604ABD1
:104ED00051F8080B3246006802F0CCF9044600286D
:104EE0003FF471AF92E707246DE703246BE700BF3F
:104EF00058E30400C9DE040073B5064615460C46A7
:104F000029B90A46FFF79AFE072002B070BD0F4B81
:104F100000930F4928680C2307221EF098F90346D6
:104F200088B182685B68511006EB6200D20748BF07
:104F3000725804F1FF3148BFD358C9B22A1D02B0DC
:104F4000BDE8704018472320DFE700BF394C000060
:104F500090E304002DE9F0410446ADF5BC6DD0F8B6
:104F6000008008460D46164601F00DFE074628460D
:104F700001F00BFE11493A1A4046FBF7A6FD06F177
:104F800010012068FBF7C0FD728C0D492068FBF70B
:104F90009CFD284601F0F9FD01AA014640F2DB53D1
:104FA000284601F0F6FD01AA0023135405492068A4
:104FB000FBF7FAFD0DF5BC6DBDE8F0815BE3040085
:104FC00032D20400A0CB0400FFF7C4BF012303FAD0
:104FD00000F0084A82B0C04352E8003F0193019BB1
:104FE00003400193019B42E800310029F4D102B053
:104FF000704700BFE80C0020074A82B052E8003F2B
:105000000193019B23F001030193019B42E80031CE
:105010000029F3D102B07047E80C00200123094AAF
:1050200082B003FA00F052E8003F0193019B034372
:105030000193019B42E800310029F4D102B000F055
:10504000F6BC00BFE80C0020F4230B70CE234B709D
:1050500036238B704FF0805382B01A6E5B6EC1F8AE
:105060000330CA7102B0704707B501A8ADF804104B
:105070003EF0C2FF03B05DF804FB000010B4074827
:10508000CB1D1C7800F8014B8B4203F1FF33F8D1A4
:105090005DF8044B08463EF0B1BF00BFB80C0020DD
:1050A00007B501A8ADF804103EF0AAFF03B05DF803
:1050B00004FB000008B5134B01221A70124B7F222B
:1050C0001A70124B124A1A60124ADA60124A00230E
:1050D0001370124A184659010133102B8850FAD127
:1050E0000F4A00237F210133102B02F8011BFAD154
:1050F0000C482022002146F055FABDE808403EF059
:105100008CBF00BFB00C0020AF0C0020080F0020A7
:10511000390F0020280F0020FC0C0020000D00207B
:10512000C80C0020780C002008B53EF0BBFF3EF014
:1051300099FF024B00221A6008BD00BFE80C002056
:1051400008B50C4B1B7883B93EF0A0FF04280ED0A5
:1051500004D8022814BF0220012008BD0638C0B2BE
:10516000022834BF03200220F7E70020F5E70320E0
:10517000F3E700BFB00C0020034B1A7812B10020F7
:10518000187070470D207047B00C002010B5084C07
:1051900022784AB9FFF7D4FF012803D0054B1B68DA
:1051A000DB0703D501232370002010BD0D20FCE791
:1051B000B00C0020E80C002008B53EF076FF28B9BE
:1051C00001F017F9FFF718FF002008BDFFF714FFE3
:1051D0000020FFF723FFF7E70B68F7B58A8803F88D
:1051E000012C07460C463EF051FF022801D101F088
:1051F000FFF8204600F08AFC90B1204600F08BFCBE
:1052000070B1A37EDB070BD41E4B2046197800F04B
:10521000A0FC1D4B196820464A1C1A6000F09BFC3C
:105220002669A079D6B1256800903346681E626968
:1052300001213EF054FF0028064612BF00250D252F
:105240000126FFF7D9FE214638460DF025FA16B99A
:105250000220FFF7E3FE284603B0F0BD3EF0B2FEA9
:10526000A57E206815F0020505D0013835463EF0D0
:1052700075FF0126E5E7294601383EF024FF064682
:10528000DFE700BFC00C0020C40C002000487047BE
:10529000080F002008B5064B4FF4206043F00103CF
:1052A00098473EF02AFFBDE808403EF028BF00BF07
:1052B000F0E30400FB2070473EF032BF08463EF0AA
:1052C00031BF08463EF030BF07B5ADF8041001A865
:1052D00000213EF02BFF00280CBF0320002003B06C
:1052E0005DF804FB08B5084601213EF01FFF0028C9
:1052F0000CBF0320002008BD07B5ADF8041001A8BD
:1053000000213EF01CFF00280CBF0A20002003B043
:105310005DF804FB08B5084601213EF010FF0028A7
:105320000CBF0A20002008BD00203EF00BBF01206A
:105330003EF008BF4FF47A7310B55A430A4C0B4B3A
:10534000226008461970FFF757FE3EF03BFE2068CA
:105350003EF0CDFE20B10520FFF738FE002010BD45
:105360000520FFF75BFEF9E7B40C0020B20C00202B
:1053700010B50C4621B13EF038FE2070002010BD63
:105380000720FCE713B50C4661B101A83EF0E4FE2E
:10539000054A9DF8053012785E3B9B1A2370002069
:1053A00002B010BD0720FBE7C10C002013B50D4B68
:1053B0001B78194448B210F15E0F10DB0024ADF8E1
:1053C00005408DF807408DF804403EF01FFE8DF833
:1053D000050001A83EF0B9FE204602B010BD07202E
:1053E000FBE700BFC10C002021B1034B1B780B7001
:1053F0000020704707207047C10C0020F7B50B4C08
:10540000054601A80E4694F900703EF0A5FE9DF8F1
:105410000530217826705E3B591A49B22846FFF7BD
:10542000C5FF00B1277003B0F0BD00BFC10C002064
:10543000F8B50026404D044637462B684BB1204650
:10544000002229460DF020F928682F6001383EF02F
:1054500052FE0136102E05F12005EED1374D2B6896
:105460009F0714D5364E0120FFF7B0FD326835494D
:10547000002A20464FF0000318BF32460DF014F901
:10548000306820B101383EF036FE002333602B68CF
:105490005E0708D50220FFF799FD2A490F23002255
:1054A00020460DF001F92B68180708D50320FFF7F7
:1054B0008DFD24490E23002220460DF0F5F82B68BF
:1054C000D90608D50420FFF781FD1F4B00211A786B
:1054D00020460DF0D9F82B685A0608D50620FFF7AC
:1054E00075FD1A4B204693F900100DF0EAF82C6870
:1054F00014F0010408D03EF0D8FD0446A0B900F035
:1055000078FF2046FFF762FD2B689B0611D5104BF4
:1055100018783EF057FD0F4B18683EF0E8FD28B9AB
:10552000BDE8F84000F083BA0124EDE70520FFF75D
:105530004DFD002CF4D1F8BD000D0020E80C00203A
:10554000780C0020080F0020FC0C0020B10C00207B
:10555000B20C0020B40C00202DE9F84FDFF8D8B0D1
:105560001F460446894692460023D8465D0155F8F9
:105570000B10002950D10BEB05062022304646F0D7
:1055800011F8631C4BF805302378B38086F815902A
:1055900086F816A03EF025FDB0716278DFF89C9089
:1055A00012F020023FD1454405F1100AEB7D62F371
:1055B00000038AF8073000F071FD217880463846F4
:1055C0003EF027FD074600F055FD0246A8EB070018
:1055D000121A61F10003C5E90223002389F80030A3
:1055E0006378124C13F0200F10D0304600F084FA8C
:1055F00060B19AF80730227862F341038AF80730E5
:105600000B4B1B682B610B4B1B782B7500232370F6
:10561000BDE8F84F00F00BBA0133102BA6D10023E0
:1056200001341C60FFDE99F80020BCE79E0C0020CE
:10563000980C00209C0C0020000D00209D0C0020E8
:10564000431E092B09D8DFE803F00516191C1C1CA2
:105650001C051C1C0D4B12221A700D4A00231370DE
:105660000C4A0828137001D005280DD1074A0020E4
:105670001370FFF7D3BC054B1122EDE7034B162245
:10568000EAE7024B0122E7E70420F2E7FC0C0020E6
:105690009D0C00209E0C002070B54278224B234EBA
:1056A000C2F3001119700021130788B0044631704D
:1056B00033D51C2201A845F075FF631C0093684692
:1056C0002378ADF8043000F037FA0446684600F05D
:1056D00022FA10B30CB3164B1B789C421FD05A1EF3
:1056E00094421ED001339C4217D1124B124D134AE3
:1056F00029681160124A02931470214601226846FB
:10570000327000F026FA296868464B1C2B6000F0C6
:1057100022FA0C49684600F0EDF908B070BD0A4B5A
:10572000E4E70A4BE2E700BF9D0C00209E0C00203E
:10573000C00C0020D80C0020C40C0020980C0020C5
:105740009C0C0020B80C00209F0C0020EC0C0020CA
:105750002DE9F047DDF820A0144C90461F460D4679
:1057600029B92160BDE8F0470120FFF757BC00F0E0
:1057700095FCA946064619F8011B50463EF049FC27
:10578000824600F077FC0246A6EB0A00121A61F18D
:105790000003C4E90223C4F800902B78A38084F8A6
:1057A0001580A7753EF01DFCA071DBE7780C00208A
:1057B000013906290AD8DFE801F0040707040704C5
:1057C00004000220FFF72ABC0320FBE7704700001B
:1057D00008B53EF017FC034B1870BDE808400620E2
:1057E000FFF71CBCB10C00206FF063007047000095
:1057F00010B50A4C204600F089F970B1204600F03F
:105800008AF950B1A37E1B0707D4054BA36020463D
:105810000449BDE8104000F06DB910BD080F00202C
:105820009F0C0020B80C00207047704701F074BA3C
:1058300000F02CBDF8B500201C461746DDE90665D2
:1058400041F0C0FF124B134A1F7004F110012346B0
:1058500053F8040B42F8040B8B42F9D10E4A33463D
:1058600006F1100153F8040B42F8040B8B42F9D1F6
:105870000A4A2B4605F1100153F8040B42F8040BB9
:105880008B42F9D1BDE8F840002041F09DBF00BF38
:10589000C00C0020EC0C00209F0C0020D80C002035
:1058A00010B500200C4641F08DFF034B00201C601A
:1058B000BDE8104041F088BFC40C0020A0F10B03EC
:1058C0000F2B9DBF024BC01810F90B0C7F207047A7
:1058D000C80C002008B5FFF7F1FF074B93F9003023
:1058E0007F2B04D09842A8BF184640B208BD7F283D
:1058F00008BF0020FAE700BFAF0C002010B5084633
:105900000C463EF05FFB3EF0C1FB022801D100F0E7
:105910006FFD2046FFF7DEFF3EF065FB3EF0CDFB5E
:10592000FFF76AFB00280CBF0D20002010BD00000F
:1059300010B50C463EF055FB7F2C07D0044B1C7075
:10594000FFF7C8FF3EF04FFB002010BD0720FCE72B
:10595000AF0C002021B1034B1B880B800020704747
:1059600007207047000F00207047000008B5034B68
:1059700008461980FFF7F8FF002008BD000F00203F
:1059800010B50C4C00F033FD00F05CF8FFF7CCFBD9
:1059900000F052FD22780AB900F03EFD207800F0B8
:1059A000D0FD00F00FFD00F0F1FBBDE8104000F06D
:1059B00023BD00BF080A012010B5114C23780BB19C
:1059C000FFF7DEFF0F4B0122C3F8402541F01EFF19
:1059D00000F010FD00F0CEFA00F0A0FC23780BB927
:1059E00000F019FD207800F0A7FD00F017FDFFF78B
:1059F00061FB00F01DF800F0F9FC0023237010BDDE
:105A0000080A012000E00140014B1878704700BFF0
:105A1000080A012010B50446FFF70AFD00F095FDC5
:105A200000F016F82046BDE8104000F005BB7047B6
:105A3000034B00221A60A3F2045301221A6070473C
:105A400004C50040014B01225A60704700C000406D
:105A50001F4B2DE9F7431F4CD3F8002125688AB16D
:105A60000022C3F80021D3F800210192019AD3F853
:105A70000825D3F80835920544BF6FEA83536FEACF
:105A80009353236000F0F6FA134B1A680FF23809AB
:105A9000D9E90089861A5A6861EB0207B94508BF3F
:105AA000B0453FBF0A4A01261660C3E900012368DA
:105AB000AB4204D003B0BDE8F0433EF09BBA03B064
:105AC000BDE8F083AFF3008080C3C901000000008F
:105AD00000C00040C00F0020B80F00207047704782
