:101000000000042015E4000059E400005BE4000047
:101010005DE400005FE4000061E400000000000007
:1010200000000000000000000000000063E4000079
:1010300065E400000000000067E4000069E40000CF
:10104000A9B30000AD9E00006BE400006BE400005B
:101050006BE400006BE400006BE400006BE4000054
:101060006BE400006BE400006BE400006BE4000044
:101070006BE40000414100006BE400006BE4000001
:101080006BE400006BE400006BE400006BE4000024
:101090006BE400006BE400006BE400006BE4000014
:1010A0006BE400006BE400006BE400006BE4000004
:1010B0006BE400006BE40000000000000000000092
:1010C0006BE400006BE400006BE400006BE40000E4
:1010D000693400006BE400006BE4000065C30000AD
:1010E0006BE400006BE400006BE400000000000013
:1010F000000000006BE40000000000006BE4000052
:1011000000000000000000000000000000000000DF
:1011100000000000000000000000000000000000CF
:1011200000000000000000000000000000000000BF
:1011300000000000000000000000000000000000AF
:10114000000000000000000000000000000000009F
:10115000000000000000000000000000000000008F
:10116000000000000000000000000000000000007F
:10117000000000000000000000000000000000006F
:10118000000000000000000000000000000000005F
:10119000000000000000000000000000000000004F
:1011A000000000000000000000000000000000003F
:1011B000000000000000000000000000000000002F
:1011C000000000000000000000000000000000001F
:1011D000000000000000000000000000000000000F
:1011E00000000000000000000000000000000000FF
:1011F00000000000000000000000000000000000EF
:1012000010B5054C237833B9044B13B10448AFF340
:1012100000800123237010BDD000002000000000DA
:101220003810010008B5034B1BB103490348AFF365
:10123000008008BD00000000D4000020381001002C
:10124000A3F5803A704700BF174B002B08BF134B24
:101250009D46FFF7F5FF00218B460F461348144AC1
:10126000121A0DF0B1FE0E4B002B00D098470D4B1B
:10127000002B00D098470020002104000D000D48ED
:10128000002802D00C48AFF300800DF043FE200090
:10129000290000F014F80DF029FE00BF000008003E
:1012A000000000000000000000000420D00000202A
:1012B000345400200000000000000000704770B5AA
:1012C00005460E463146284602F056FE03F060F908
:1012D000044600F019F802F077FE18B1204603F03A
:1012E0005BF9EFE7204603F010FA204602F072FEA9
:1012F000F1E710B50C4603F02BF9204610BD00F0C5
:10130000F5B800F0EAB8000010B5044603F018F98B
:1013100020460249BDE8104000F040B8F31200003A
:1013200070B50446154641F2641600F083F9C4F81E
:10133000385904F65811A51904F63C1005F07DF94A
:1013400023462946124A04F6441005F0D7F904F65C
:101350005E13C4F8583904F58B524FF40063A4F8B7
:101360005C3900231380AA1DA2514FF40072AA8099
:1013700041F26C320748A35441F27032A118A050D8
:101380004B60201D0449224605F062FA204670BDDC
:10139000C5150000B3140000D513000010B5064CAD
:1013A0000A4601462046FFF7BBFF00F0C3F984421E
:1013B00000D0FEE710BD00BFF0000020D0F8582993
:1013C00000F65E139A4204D100F59B50103003F0F2
:1013D00039BA7047FFF7F2BF2DE9F04100F58B579E
:1013E0000446051D013704F58B56284605F036FBEB
:1013F000337880B1022B4BD0D4F8585904F65E10E4
:101400002D1AA9B2002952D0D4F838399847ADB274
:1014100085424CD0FEE7012B21D0022B38D0002B87
:10142000E3D1204600F08CF908B102F095F820468F
:1014300000F090F90028DFD104F63C1005F001F926
:101440000028D9D1284605F054FB012333702846E3
:1014500005F064FB58B9284605F069FB3870397807
:1014600004F63C1005F0F6F80028F0D0C4E794F834
:101470009880284605F02EFCB8F1000F06D094F8AD
:1014800098301BB941F26C330122E25402233370CD
:1014900004F63C1005F00CF90028ADD141F26C3394
:1014A000E218E35C3070002B9FD010709BE7BDE822
:1014B000F08108B500F03EF9BDE80840FFF78CBFA9
:1014C00000F65E13C0F858394FF40063A0F85C3999
:1014D00000F59B50103003F0B5B908B500F02AF9BB
:1014E00018B1BDE80840FFF7EBBF08BD13B50446CF
:1014F000019100F01FF940B1019A214600F6441015
:1015000002B0BDE8104005F001B902B010BD000006
:10151000F0B50C46A1B015461E4600F025F923464D
:10152000194A1A4F802168460DF084FD68460DF077
:10153000BDFD69460246002000F0FAFF0024A642E5
:10154000A0B20ED0292C0BD0A4EB840104EB4400F4
:101550002B5D3A46803168440DF06CFD0134EEE7B6
:10156000204600EB4000C0F18001094A68440DF0BC
:1015700061FD68460DF09AFD0DF10101421E00204B
:1015800000F0D6FF21B0F0BDAC040100C0040100A2
:10159000C604010041F26412F8B583588718BE1DD5
:1015A0009B1B05469BB2144641B91A46314600F0D2
:1015B00021FE4FF400732E51BB80F8BD3246FFF779
:1015C000A7FFF6E7FFF7E6BF1C282ED8DFE800F0FC
:1015D000300F11132D1517192D2D2D2D1B1D1F210A
:1015E0002D2D2D272D2D2D25232D2D292B000120AF
:1015F00070470E2070470B2070470C207047092061
:101600007047032070470220704704207047112064
:10161000704712207047132070471420704716201F
:101620007047172070471820704700F580407047BA
:101630000020704770B50646044646F8041B4FF478
:10164000006200F1D101304605F0F5F8002526656D
:1016500004F1540304F17402C3E9005508339A42BB
:10166000FAD1C4E91E55A4F8745004F1800005F0C5
:1016700078FB2B4A84F898500421C82384F8C810BA
:101680002849C4F89C50C4E928234FF6FF73096821
:10169000A4F8A830244BC4F8CC104FF07F410022AE
:1016A000C4E92B35C4F81419002304F51361C4E907
:1016B0002E23C4E93023C4F8B45084F8D05084F801
:1016C000D158A4F8D258C4F8105984F81859C4F85D
:1016D0001C59C4F82059C4F82459C4F8285984F86E
:1016E0002C59C1E90023236803B9FEE70F4B1049C9
:1016F0001C602246304605F0AEF83C22002104F67C
:10170000D4000DF061FC7722002104F1B80001F053
:101710009BFA04F1AC0003F095F8204670BD00BFC1
:1017200000F8FF073C0C0100C51A000068140020F7
:101730002B1B0000014B1868704700BF6814002085
:1017400090F8C830042B1ABF90F8980080F0010080
:101750000020704790F8C830012B06BF90F8980021
:1017600080F0010000207047D0F81C390133C0F828
:101770001C3970472DE9F843994690F814390D1E2D
:101780000446164608BF702513B10D20BDE8F88346
:1017900000F1B8072946384601F0D4FA0028F4D100
:1017A00094F8D22894F8D3389A420AD00B22002118
:1017B000384601F049FA04F1AC0003F043F8032085
:1017C000E4E704F150082B4606228021404605F04C
:1017D000CFFC48B9206D1FFA89F2314605F050FA66
:1017E00010B9404605F0A7FC0328CFD1DEE7000082
:1017F000013804289ABF024B185C0020704700BFD4
:10180000C9040100F8B511F00F0601F00F0708D167
:10181000022A04D11A463146B83001F015FA304692
:10182000F8BD90F8D35890F8D2186C1A0E2C06DD3B
:101830000E220021B83001F007FA0326EFE790F8F6
:10184000D148B44218D08D4216D90C460E2C02D97C
:101850000F3CE4B2FAE704F50D7400EB840494F84D
:1018600004C01CF0100F0DD00CF00F0EB64509D1BE
:101870006FF3041C84F804C02C460E2C05D90F3CD1
:10188000E4B2FAE70131C9B2DDE702F0030247F042
:10189000100141EA421104F50D74084A00EB84047A
:1018A00002EAC3131943636803F000431943013587
:1018B0006160002680F8D358B1E700BF80FFFF7F4A
:1018C00013460222FFF79EBF38B511F0300F00F12A
:1018D000500408BFC0F89C2015460023062220466D
:1018E00005F046FC48B92946204605F089FB20B999
:1018F0002046BDE8384005F01EBC38BD2DE9F74351
:1019000004460D466846114691461E4600F044FEC8
:10191000DDE900782FB918F0010F02D1E6B932469F
:101920001BE004F150064B4606222946304605F0DE
:101930001FFCC8B94FEA680318F0010F18BFE3583D
:1019400004EB680018BFDF59B84768B9304603B0E8
:10195000BDE8F04305F0EFBB0D222946204603B059
:10196000BDE8F043FFF7B0BF03B0BDE8F08370B54A
:101970000446002694F8D25894F8D338AB4238D0B5
:1019800005F50D7504EB85021379D90616D404EB21
:1019900085052B796FF304132B7194F8D23801333A
:1019A000DBB20F2B84F8D238E4D194F8D33884F822
:1019B000D2680E2B1AD90F3BDBB2FAE703F00F0106
:1019C000526803F06003402B41F08001C2F3D7124C
:1019D00005D12046FFF778FF0028D8D070BDB3FAB4
:1019E00083F35B092046FFF789FFF5E784F8D338D6
:1019F000C0E70020F2E700002DE9F74FD0E92E23E1
:101A0000134304464BD0B83001F01CF92C4F8046EC
:101A100000254FF0010AEBB2434540D2D4E92E3005
:101A2000C5F12001A5F12002EB4000FA01F10B43C2
:101A300020FA02F2134313F0010FC5F12009A5F1BA
:101A4000200602D10C370135E5E73A686ABBD7F8C2
:101A500004B0BBF1770F06D1206801F063FD0828C0
:101A600098BF00F1700B5A4680212046FFF72CFFEB
:101A7000A8B9D4E92E120AFA06F62AFA09F90AFADE
:101A800005F321EA030346EA0906009322EA060366
:101A90000193DDE90023C4E92E231343D2D10123AE
:101AA00084F82C3903B0BDE8F08F94F82C39002B62
:101AB000DFD0012380212046FFF720FFD8E700BFB9
:101AC000F4070100014B1868FFF796BF6814002067
:101AD00090F8983010B5044633B1D0F8CC308B4232
:101AE00004BF002380F898302046FFF740FFD8B9A4
:101AF00094F8D01099B101230C222046FFF7FEFE86
:101B000090B994F8C83084F8D000042B07D0201D79
:101B100004F0A2FF0123C4F8CC0084F898302046DA
:101B2000BDE81040FFF768BF10BDFFF7D1BFF8B5A3
:101B300000F1500504462846069EBDF81C7005F0CD
:101B400017FB50B9206D3A46314605F099F820B997
:101B50002846BDE8F84005F0EEBAF8BD2DE9F04F93
:101B6000042B87B004460D46174602D0052B18D02B
:101B7000FEE7114604A800F027FDDDE904864FF0DA
:101B8000070906F0010BB8F1000F13D1BBF1000FEC
:101B900010D10D2229462046FFF792FE07B0BDE87E
:101BA000F08F114604A800F01BFD4FF00809DDE995
:101BB0000486E6E704F1800A504605F0B1F90DF11C
:101BC0000A0203A9504605F08BF9504605F0AFF91B
:101BD000002384F8143904EB66007310BBF1000F86
:101BE00002D0E35853F80880C047012384F8143921
:101BF000064618B1FFF7E8FC0246CBE7BDF80A300D
:101C00000193039B00934A463B4629462046FFF733
:101C10008EFF0028C2D03246BCE708B50022FFF78D
:101C20004FFE08BD10B50446006802F0C0FC014636
:101C3000206DBDE8104005F010B810B504460068EE
:101C400002F04CFD0146206DBDE8104005F005B8DE
:101C500037B50023054601A98030019305F01BF933
:101C6000044688B99DF80410286802F039FD04463E
:101C700050B9286802F09BFC30B195F812391BB1BD
:101C8000286802F0B9FC0446204603B030BD10B508
:101C90000446006802F094FC002818BF0221206D61
:101CA00008BF0021BDE8104004F0D7BF13B50023E2
:101CB00004460DF1070180308DF8073005F069F812
:101CC00058B99DF8073023B1013B012B07D90720F4
:101CD00003E00146206802F079FC02B010BD01214A
:101CE000F8E710B5044654F8500B02F0FCFC01462E
:101CF0002046BDE8104005F027B913B504460DF1A4
:101D00000601803005F073F820B9BDF80610206890
:101D100002F0EBFC02B010BD10B50446006802F002
:101D2000E7FC08220146206DBDE8104004F0A8BF82
:101D300013B50822044601A9803005F0C3F818B98C
:101D40000199206802F0D6FC02B010BD10B504461F
:101D500054F8500B02F0D1FC01462046BDE810407B
:101D600005F0F2B890F81219006D04F076BF37B59F
:101D7000002305460DF1070180308DF8073005F08E
:101D800018F8044670B9286802F011FC30B19DF8CB
:101D9000073028684BB102F02FFC04469DF807304D
:101DA00085F81239204603B030BD02F01BFCF4E781
:101DB000F8B505460E460024012707FA04F333421E
:101DC000E1B204D10134202CF7D1002004E0286DC9
:101DD00004F043FF0028F5D0F8BD0023F7B5054611
:101DE0000C460B6000F180070126B5F88620B5F897
:101DF00088309A420FD00DF10701384604F0C9FF30
:101E000050B99DF807301F2B08D8226806FA03F353
:101E100013432360E9E7002003B0F0BD0720FBE790
:101E2000D0F8A010FFF7C4BF13B5002301A90446E2
:101E30000193FFF7D2FF10B9019BC4F8A03002B0A4
:101E400010BDB0F8A410503005F07EB800F1A40128
:101E5000803004F0CCBF10B50446006802F0A7FB48
:101E6000014628B194F9173901330CBF0021022132
:101E7000206DBDE8104004F0F0BE000037B500232F
:101E800005460DF1070180308DF8073004F081FF21
:101E9000044608BB9DF80730F3B1022B1FD1286818
:101EA00002F085FBC0B195F91739013319D1D5F886
:101EB000A030C3B15A1E1A4015D15B08D1B21046EA
:101EC00002F10102F9D185F81709084BB5F8A420F1
:101ED000286802F09CFB0446204603B030BD0C2469
:101EE000FAE70D24F8E70724F6E700BF9D28000075
:101EF00013B5044601A9803004F0CDFF28B901993B
:101F0000012204F1B80000F0D5FE02B010BD13B5F7
:101F1000044601A9803004F0BEFF28B902460199A9
:101F200004F1B80000F0C6FE02B010BDD0F89C105D
:101F3000503005F065B810B500F15004042120467A
:101F400005F05EF828B920460321BDE8104005F0F1
:101F500057B810BD0321503005F052B80021503061
:101F600005F04EB810B500F150040521204605F0EB
:101F700047F8D0B90C21204605F042F8A8B918213D
:101F8000204605F03DF880B92221204605F038F8BA
:101F900058B940F20121204605F032F828B9204610
:101FA0004021BDE8104005F02BB810BD10B5044627
:101FB00002F0F6FA014604F15000BDE8104005F0C9
:101FC0005CB8006D012104F048BE006D002104F0F2
:101FD00044BE006D042104F040BE0C20704713B5D0
:101FE00004466946006802F08AFB206D08226946B3
:101FF00004F046FE02B010BD0221503005F0D6B804
:1020000090F8C810006D04F028BE000073B50446B7
:102010000E4680300DF1070104F0BBFE80BB9DF839
:102020000730022B23D002D9DA1E012A21D884F8E6
:10203000C830002384F8D0300C22012331462046DA
:10204000FFF75CFC94F8C830042B054608D090B923
:10205000201D04F001FDC4F8CC00012384F8983061
:1020600015B184F8D0600025284602B070BD012368
:10207000DDE70323DBE7074B1B68C4F8CC30ECE754
:10208000FFF7A2FA314602462046FFF71DFC05463F
:10209000EAE700BF3C0C01000C2A10B51C4603D037
:1020A000712A06D0002010BDFFF7B0FF207001207C
:1020B000F9E700F045FDF9E7F0B585B004460D46B7
:1020C00002A81146002716468DF8077000F070FA36
:1020D000DDE9023000F0010273B96AB90DF10703BE
:1020E000324629462046FFF7D7FFF8B90D22294688
:1020F0002046FFF7E5FB17E0411084F8147904EB64
:1021000060000AB16258D358984701228DF8070041
:1021100084F8142918B1FFF757FA0246E7E7334667
:1021200029462046FFF76EFB8DF807009DF8070053
:1021300005B0F0BD73B5002304460D46803001A9FB
:102140001646019304F0A7FE024640B1FFF73CFAA1
:10215000294602462046FFF7B3FB024604E0032E61
:1021600015D004D8022E0CD0104602B070BD331F1B
:10217000012BF9D8019A334629462046FFF7EEFC99
:10218000EBE7019B29462046FFF73CFBE5E7019A78
:1021900029462046FFF790FFDFE7000073B50546AC
:1021A0000E46803001A904F076FE0446B8B9019AC3
:1021B000012A0FD008D9931E032B13D905223146CB
:1021C0002846FFF77DFB03E031462846FFF725FD53
:1021D000044604E0286802F0E1F9054B1C60204643
:1021E00002B070BD31462846FFF7A4FFF0E700BFFC
:1021F0006814002030B5012385B080F814390446F6
:102200000025803001908DF80F5004F0B7FD0423B5
:10221000019884F8C83084F898500DF10F0104F04B
:10222000B8FD90B99DF90F309DF80F10AB420CDA54
:10223000D4F8203911F0300F03F10103C4F820392C
:1022400008D006222046FFF73FFB002384F814390C
:1022500005B030BD2046FFF7A1FF38B19DF80F1043
:10226000FFF7B2F902462046FFF72AFB94F8D3287D
:1022700094F8D2389A4202D02046FFF778FB9DF8B6
:102280000F3094F8D12803F00F0332B19A421EBFE9
:10229000D4F824290132C4F824290F2B14BF0133A8
:1022A000012384F8D138D0E710B50446006801F066
:1022B000B9FAC1B2206DBDE8104004F0CEBC10B533
:1022C0000446006801F058FDC1B2206DBDE8104021
:1022D00004F0C3BC10B50446006802F0FFF90146E3
:1022E000B0B10A280CD84FF4FA60414301F55C21E3
:1022F00001F5346104F15000BDE8104004F033BE34
:10230000192807D8044841F2883303FB0101F1E79B
:102310000249EFE70021EDE7B0DB2300CC3F0D00E1
:1023200013B504460DF10701006801F0F3FA30B966
:102330009DF80710206D04F090FC02B010BDFFF76F
:1023400043F9014604F1500004F030FFF5E713B5FE
:10235000002304460DF1070180308DF8073004F0AA
:102360003AFD20B99DF90710206801F0E7FA02B0A4
:1023700010BD13B504460DF10701006801F0C0FA65
:1023800030B99DF80710206D04F067FC02B010BD55
:10239000FFF71AF9014604F1500004F007FFF5E7D2
:1023A00013B5002304460DF1070180308DF8073086
:1023B00004F011FD20B99DF90710206801F080FD9F
:1023C00002B010BD13B504460DF10701006801F01D
:1023D000D3FA30B99DF80710206D04F03EFC02B02E
:1023E00010BDFFF7F1F8014604F1500004F0DEFEE5
:1023F000F5E713B5002304460DF1070180308DF891
:10240000073004F0E8FC20B99DF90710206801F0BE
:10241000BDFA02B010BD37B500F1800504460DF1DC
:102420000601284604F0B5FC60B90DF10701284605
:1024300004F0D1FC30B99DF907209DF80610206802
:1024400001F050FD03B030BD13B504460DF1060197
:1024500054F8500B01F05EFD30B9BDF8061020466F
:1024600004F072FD02B010BDFFF7AEF80146204641
:1024700004F09CFEF6E713B504460DF1060180302A
:1024800004F0B5FC20B9BDF80610206801F04EFD3F
:1024900002B010BDFEE7FEE710B5044602F031F9C8
:1024A000FFF7A6F90146206DBDE8104004F0D5BB4A
:1024B000F7B5002300220546CDE9002300F0F5FE24
:1024C0006946044605F1800004F0BDFC70B9DDE901
:1024D000006723460024A74208BF9E4208D3F21A91
:1024E00067EB0403C5F83029C5F8343903B0F0BDF3
:1024F0000720FBE700F51363D3E90023503004F015
:102500004DBD10B50446006803F06EF80146204644
:10251000BDE81040FFF74CBC10B50446006803F05E
:1025200067F801462046BDE81040FFF741BC0000B7
:102530001346074A10B4146834B10A4601462046CF
:102540005DF8044BFFF716B90D205DF8044B70479A
:1025500068140020F0B5013A044600260C20B2426F
:102560000AD995196D0800FB05F7CF599F4201D292
:102570006E1CF4E72A46F2E700FB06F288188A5838
:1025800093420BBFD0E901010023C4E90001C4E973
:1025900000332046F0BD000010B50B460446034949
:1025A0002722FFF7D7FF204610BD00BFD00401004F
:1025B00010B50B46044603491622FFF7CBFF204611
:1025C00010BD00BFA406010010B50B460446034928
:1025D0000322FFF7BFFF204610BD00BFAC0701007C
:1025E00010B50B46044603490322FFF7B3FF20460C
:1025F00010BD00BFD00701000421503004F000BD21
:10260000F8B50646174600F150050C4649B142B9E7
:102610008A880968284604F01EFD002875D001202C
:10262000F8BD0021284604F08FFC0028F7D1002CCB
:102630006BD12146306DC9B204F00FFB0028EED1FA
:10264000306D802104F009FB0028E8D1002C5FD018
:10265000E37D13F0010F0CBF002110219B0701D572
:1026600041F02001284604F06FFC0028D7D128460D
:1026700004F01DFD01460028D1D104B1A179306DCF
:1026800004F0EBFA01460028C9D104B1A17D306DF8
:1026900004F0E3FA0028C2D1002C3BD0D4E9022395
:1026A000284604F07BFC0028B9D1284604F01EFD22
:1026B0000028B4D1284604F0FAFC0028AFD13946EE
:1026C000284604F09DFC0028A9D1284604F00EFD00
:1026D0000028A4D1284604F0EAFC014600289ED137
:1026E00004B1217D306D04F0B8FA002897D1A4B16F
:1026F0002169284604F037FC002890D1284604F0D0
:10270000F5FC003818BF01208AE794F9151091E70D
:102710002146A7E700220023C2E72146E9E7F8B5F2
:1027200000F1500704460D4616467123062280210B
:10273000384604F01DFD50B9324629462046FFF7C1
:102740005FFF20B93846BDE8F84004F0F4BCF8BD9E
:10275000014B1868FFF7E3BF681400202DE9F34729
:102760000D4690F81619044616461F46002939D022
:1027700041F080016AB3136893F800A0CAF3001A0D
:1027800095F81A90002304F1500884F816390622AF
:10279000404609F0010904F0EBFC18BB3846FEF78F
:1027A00013FF0146404604F02BFCD8B9206D51467A
:1027B00004F053FAB0B9206D494604F04EFA88B9D6
:1027C0004FB12B681B781B070FD4404604F0B3FCB5
:1027D00008E09246D4E73A4631462046FFF710FF1C
:1027E0000028EED002B0BDE8F087B9F1000FECD0C0
:1027F0000DF10301284602F0C2FA0028F2D101A926
:10280000284602F093FA0028ECD19DF80310206DC1
:1028100004F023FA0028E5D10199404604F0A3FB17
:102820000028D2D0DEE7000001480068FFF796BF1D
:1028300068140020F8B5FF23054690F9177980F851
:102840001739044655F8500B0E4601F0D5FE3923D2
:1028500006228021284604F08BFCF0B9206DF9B2E5
:1028600004F0FBF9C8B9206DF1B204F0F6F9A0B993
:10287000284604F060FC80B98021302306222846D7
:1028800004F076FC014640B9206D04F0E6F920B969
:102890002846BDE8F84004F04EBCF8BD014B18686E
:1028A000FFF7C8BF6814002010B5044654F8500B59
:1028B00001F0AAFE01462046BDE8104004F0A0BB8E
:1028C00090F81819006D04F0C8B910B5044654F812
:1028D000500B01F001FF02460B462046BDE81040B8
:1028E00004F05CBB10B500F618110446803004F00B
:1028F00060FA30B994F818192068BDE8104001F06A
:1029000089BE10BD73B50446006801F0C7FE0546D8
:10291000B8B904F18006B4F88830B4F886209B1A60
:102920009BB2012B0DD90DF10601304604F05FFA80
:1029300030B9BDF80610206801F078FE0028EAD012
:102940000546284602B070BD73B50446006801F024
:10295000B1FE0546B0B904F18006B4F88830B4F889
:1029600086209B1A9BB2072B0CD9082201A930465E
:1029700004F0A8FA28B90199206801F061FE002846
:10298000EBD00546284602B070BD13B504460DF1E4
:102990000601803004F02BFA20B9BDF8061020683B
:1029A00001F060FE02B010BD13B50822044601A973
:1029B000803004F087FA18B90199206801F05CFEB4
:1029C00002B010BD13B504460DF10601803004F0CD
:1029D0000EFA20B9BDF80610206801F027FE02B0FB
:1029E00010BD13B500230446082201A980300193CD
:1029F00004F068FA18B90199206801F021FE02B0CC
:102A000010BD000013B500230DF10701044680300E
:102A10008DF8073004F0CDF9014630B99DF8073044
:102A200020682BB901F0C0FD0146084602B010BD78
:102A30000049F7E75127000013B504460DF10601E0
:102A4000803004F0D4F920B9BDF80610206801F0F8
:102A5000B3FD02B010BD7FB500F180060C460DF14C
:102A60000A0203A9304604F046FA0546002862D15E
:102A7000BDF80A207F2A61D82546039955F8060B30
:102A8000A2800CF079FA2946304604F082F9054616
:102A9000002850D140F604732383A37E23F017034C
:102AA00043F00403C4E90400A37604F1180130469E
:102AB00004F06FF900283ED104F11901304604F00A
:102AC00068F9C0BB0DF10601304604F072F990BB05
:102AD00002A9304604F06DF968BB0DF107013046DC
:102AE00004F067F938BB0DF10901304604F061F9D3
:102AF00008BB04F11001304604F08DF9D8B904F197
:102B00001401304604F087F9A8B99DF807209DF814
:102B1000083043EA42039DF8062043EA82039DF809
:102B2000092043EA0213A27E03F0170322F01702E2
:102B30001343A3760546284604B070BD0625FAE780
:102B400038B5044600680D4601F031FDE8B1206853
:102B500001F055FD0146D0B12046FFF77CFF03464A
:102B600048B905F00F0384F816390A49206801F0C6
:102B700048FD034668B11846FEF726FD2946024681
:102B80002046BDE83840FEF79FBE0D23F3E7032340
:102B9000F1E738BD2928000030B500F1800487B086
:102BA000054602A9204604F0F4F820B99DF8083043
:102BB000082B02D0072007B030BD0DF109012046D7
:102BC00004F0E7F80028F6D10DF10A0203A9204627
:102BD00004F091F90028EED1BDF80A30102BE9D1AC
:102BE0000DF10A0204A9204604F085F90028E2D17B
:102BF000BDF80A30102BDDD10DF10A0205A92046DF
:102C000004F079F90028D6D1BDF80A30102BD1D1C3
:102C1000059B0193049B00939DF80920039B9DF85D
:102C20000810286801F052FDC5E713B5044601A954
:102C3000803004F0F0F818B90199206801F049FDDE
:102C400002B010BD1B20704730B5194C0023256819
:102C50008D4225D16568954222D1D0E90225C3F184
:102C6000200405FA04F4A3F12001DA40224325FAF6
:102C700001F10A4312F0010FC3F12004A3F1200275
:102C80000DD1012101FA02F221FA04F4224301FAE2
:102C900003F3D0E900140B432243C0E9003230BDF6
:102CA0000133DBB21B2B04F10C04D0D1F7E700BFDA
:102CB000F40701002DE9F04F0023214C93461F46F5
:102CC000012694F814C05D1CBCF1000F26D0E26808
:102CD0008A4223D11F3BC5F1200E26FA0EFE06FACA
:102CE00003F343EA0E0306FA05FAD0E902796FEA24
:102CF0000A086FEA030EBBF1000F18D04AEA070773
:102D000043EA0903C0E90273D0E9003703EA080384
:102D100007EA0E07C0E9003731B967461A2D2B467E
:102D200004F10C04CDD14FB10020BDE8F08F08EACA
:102D300007070EEA0903C0E90273EDE70720F4E78D
:102D4000F407010030B5104B00220132D2B21B2A29
:102D500003F10C0301D1002015E01C7A002CF4D003
:102D60001C688C42F1D1D0E90235C2F12004A2F1F5
:102D7000200123FA02F005FA04F4204325FA01F1B8
:102D8000084300F0010030BDF407010000F14020CD
:102D900000F50030002382B0036003680193019BBB
:102DA00002B0704708B5094B020103EB0010084B55
:102DB0004168C3F84813C168C3F808130089FFF7D6
:102DC000E5FF044B0021995408BD00BF38090100FC
:102DD0000040024080140020224B37B519460120E4
:102DE000D3E84F2FD2B28DF807209DF8072062B1AB
:102DF000BFF32F8F1C4B1A681C4B12B91A68D207ED
:102E00002DD518680230400827E0C3E8420F002A99
:102E1000E6D1174B0222C3F80823BFF35F8F03F5F7
:102E20008273124A1B684BB1136801331360BFF3FE
:102E30005F8F4FF48270FFF7A9FF012310680C4CDD
:102E4000022501304008C4F80453BFF35F8F00240B
:102E50000C7013B113680133136003B030BD1868F0
:102E6000D1E700BF6D14002004410240701400201F
:102E7000004002402DE9F04106460C46FFF7ACFF4A
:102E80000546BFF35F8FDFF82080D8F80475BFF3E5
:102E90005F8FFFF7A1FF3060854218BFD8F8047537
:102EA0002760BDE8F08100BF004002402DE9F843F3
:102EB0004C4CDFF840E1DDE9083C04EB02188946A0
:102EC0009842D8F80C10D8F80480CEF808134FEACE
:102ED0000215CEF844839E4672D9A0EB0308B8F1E0
:102EE000000F6DDA00334CF1FF3CC84618EB0008C8
:102EF0004FF000034FF0000949F1000913EB0806F9
:102F00004CEB090732B94FF47A7303FB07F1A6FBC8
:102F100003670F44344B4FEA563848EAC748A8FBCA
:102F20000389790B03FB01994FEA18704FEA19786E
:102F300040EA091043F609534FEA482C4CEAD05CAA
:102F40004FEA402EA0FB030103FB0811B6EB00087B
:102F500067EB0106254840F2314101FB08F100FB17
:102F60000616A8FB0078B0444FF0FF36BE1947F6AE
:102F7000FF7048EB00004FEAD03818EB0E084FF016
:102F8000000141EB0C0C28F07F4640F2FF10A8FB3B
:102F9000038903FB0C9918EB000049EB0101D2B146
:102FA000400A40EAC150490A114B124A2B44C3E976
:102FB0000201635903F5A87342F82360BDE8F88362
:102FC000704592D2AEEB000EBEF1000F8DDA0033E9
:102FD0004CF1010C89E74FF4FA2200230BF00AFEB2
:102FE000E2E700BF38090100D07B63087B2DE8BD14
:102FF000801400200040024073B5064601A96846CF
:10300000FFF738FF019843F6095140F2FF12002301
:10301000E1FB0023540A44EAC3545D0A009A084BBA
:10302000E3FB024546B9204629464FF47A72002355
:103030000BF0E0FD04460D462046294602B070BD67
:103040000080841EF8B51A4D05EB001304460601F6
:1030500018890F46FFF79AFE2046FFF7CDFF02467C
:103060000B463FB913493144D1E902018B4208BFF5
:1030700082421CD33544104B6A68C3F84823022CA3
:10308000EA68C3F808230AD0032C0CD0094A0123AC
:1030900093550A4A1370BDE8F84000F0A8BFBDE898
:1030A000F84005F095B8BDE8F84004F0A1BBF8BDC4
:1030B0003809010080140020004002406C140020F8
:1030C0002DE9FF410746884602A803A91646FFF7E7
:1030D000D1FE039843F6095140F2FF120023E1FBB1
:1030E0000023540A44EAC3545D0A029A294BE3FBC5
:1030F000024546B9204629464FF47A7200230BF068
:1031000079FD04460D463246CDE900454146384634
:10311000FFF7CCFE204B039AD3F804359A4203D034
:1031200003A902A8FFF7A6FE039B43F60950991CCA
:1031300040F2FF120023E0FB0123540A44EAC35487
:103140005D0A029A134BE3FB024546B92046294625
:103150004FF47A7200230BF04DFD04460D460F4AE2
:1031600002EB0612D2E902239D4208BF94424FEAC5
:10317000061107D301213046FFF764FF40BF04B0BA
:10318000BDE8F081064B0B44DA68034BC3F8042317
:10319000F5E700BF0080841E00400240801400203C
:1031A0003809010038B52A48402200210BF00CFFF5
:1031B000284B00201860284B1870284B002400254D
:1031C000C3E9004507F038FF07F074FF0028FBD083
:1031D000234BC02283F824231022C3F884215A6091
:1031E000204A0023C2F808354FF48270FFF7CEFD65
:1031F0000223C2F844334FF4A070C2F80433FFF73F
:10320000C5FD4FF48033C2F848334FF4A270C2F8C2
:103210000833FFF7BBFD4FF40033C2F848334FF4D7
:10322000A470C2F80833FFF7B1FD4FF48023C2F851
:1032300048334FF4A670C2F80833FFF7A7FD4FF4E8
:103240000023C2F84833C2F808330123136038BDA5
:1032500080140020701400206D14002078140020C9
:1032600000E100E0004002402DE9F04100260B4F54
:103270000446B0460A4D87F800802B781BB12046E3
:103280002E7001F093FB2B7C1BB120462E7401F0B5
:10329000B7FB3B78002BEDD1BDE8F0816C1400202A
:1032A000801400200120FFF7A7BE08B5FFF7FAFF42
:1032B0004FF47A7200230BF09DFC08BD08461146BE
:1032C0000022FFF7FDBE0020FFF76CBD08B5FFF739
:1032D000E9FF08BD084611460122FFF7F1BE0120B3
:1032E000FFF760BD70477047044B4FF48022C3F86E
:1032F0000823BFF34F8FBFF36F8F7047004002402A
:10330000024B4FF48022C3F8042370470040024070
:10331000FFF7DCBF1F2070470222FFF7D1BE02205B
:10332000FFF740BD2DE9FF48154F164E40F2FF1440
:10333000002502A903A8FFF79DFD029A43F6095351
:1033400020462946E3FB0201400A039B40EAC150A4
:10335000490AE7FB03018C4683460322CDE900BC02
:103360003E215846FFF7A2FD4FF40023C6F8043370
:10337000D6F80435029A9A42DBD104B0BDE8F08851
:103380000080841E0040024037B5044603200D46ED
:10339000FFF732FE0322CDE9000129462046FFF760
:1033A00085FD034B4FF40022C3F8042303B030BD66
:1033B000004002400320FFF7F5BC000008B5224B97
:1033C00001221A604FF4A070FFF7E0FC1F4A4FF48F
:1033D0008033C2F848334FF4A270C2F80833FFF7C5
:1033E000D5FC4FF40033C2F848334FF4A470C2F850
:1033F0000833FFF7CBFC4FF48023C2F848334FF477
:10340000A670C2F80833FFF7C1FC4FF40023C2F8DE
:103410004833C2F808330223C2F808334FF48270ED
:10342000C2F84833FFF7B2FCFFF7C4FF084B102285
:10343000C3F88420C3F88421002283F82423BDE844
:10344000084007F023BE00BF044002400040024095
:1034500000E100E0004870474C410240014B986B8E
:10346000704700BF80140020114B1B6870B52BB152
:10347000104B0222C3F80823FFF7AEFC0E4D0D4E91
:103480000024D6F80423EB681A420AD02B8903F1F2
:10349000402303F500331B681BB10021E0B2FFF7A6
:1034A000D1FD0134042C05F11005EAD170BD00BF37
:1034B000044102400040024038090100FFF7F2BE1B
:1034C000704770474FF08043044AD3F800141160EE
:1034D0004FF0FF32C3F80024704700BFC014002033
:1034E0007047000008B500F036FF0A4B187018B19D
:1034F000094B04221A6008BDBFF34F8F0749084BE0
:10350000CA6802F4E0621343CB60BFF34F8F00BF81
:10351000FDE700BFB04A0020C014002000ED00E02D
:103520000400FA050B4B1B68D9070BD49A070BD480
:1035300059070BD41A070BD413F4F81F14BF062035
:103540000020704701207047082070470220704714
:1035500003207047C014002070470000012303FAC5
:1035600000F0084A82B0C04352E8003F0193019B3B
:1035700003400193019B42E800310029F4D102B0DD
:10358000704700BF38150020074A82B052E8003F5C
:103590000193019B23F001030193019B42E8003159
:1035A0000029F3D102B07047381500200123094AE1
:1035B00082B003FA00F052E8003F0193019B0343FD
:1035C0000193019B42E800310029F4D102B000F0E0
:1035D0000EBD00BF38150020F4230B70CE234B70B6
:1035E00036238B704FF0805382B01A6E5B6EC1F839
:1035F0000330CA7102B0704707B501A8ADF80410D6
:1036000004F080F903B05DF804FB000010B4074833
:10361000CB1D1C7800F8014B8B4203F1FF33F8D12E
:103620005DF8044B084604F06FB900BF0815002090
:1036300007B501A8ADF8041004F068F903B05DF80F
:1036400004FB000008B5134B01221A70124B7F22B5
:103650001A70124B124A1A60124ADA60124A002398
:103660001370124A184659010133102B8850FAD1B1
:103670000F4A00237F210133102B02F8011BFAD1DE
:103680000C48202200210BF09FFCBDE8084004F00C
:103690004AB900BF00150020FF1400205817002071
:1036A00089170020781700204C15002050150020A5
:1036B00018150020C814002008B504F079F904F0AA
:1036C00057F9024B00221A6008BD00BF38150020D0
:1036D00008B50C4B1B7883B904F05EF904280ED0B2
:1036E00004D8022814BF0220012008BD0638C0B249
:1036F000022834BF03200220F7E70020F5E703206B
:10370000F3E700BF00150020034B1A7812B1002028
:10371000187070470D2070470015002010B5084C38
:1037200022784AB9FFF7D4FF012803D0054B1B6864
:10373000DB0703D501232370002010BD0D20FCE71B
:10374000001500203815002008B504F034F928B918
:1037500000F0DDFDFFF718FF002008BDFFF714FFA4
:103760000020FFF723FFF7E70B68F7B58A8803F817
:10377000012C07460C4604F00FF9022801D100F095
:10378000C5FD204600F0A2FC90B1204600F0A3FC4D
:1037900070B1A37E9B070BD41E4B2046197800F016
:1037A000B8FC1D4B196820464A1C1A6000F0B3FC97
:1037B0002669A079D6B1256800903346681E6269F3
:1037C000012104F012F90028064612BF00250D253C
:1037D0000126FFF7D9FE2146384601F0EAFE16B968
:1037E0000220FFF7E3FE284603B0F0BD04F070F8B6
:1037F000A57E206815F0040505D00138354604F093
:1038000033F90126E5E72946013804F0E2F80646D7
:10381000DFE700BF10150020141500200048704796
:103820005817002008B5064B4FF4206043F0010301
:10383000984704F0E8F8BDE8084004F0E6B800BF97
:1038400080090100FB20704704F0F0B8084604F03E
:10385000EFB8084604F0EEB807B5ADF8041001A8BB
:10386000002104F0E9F800280CBF0320002003B079
:103870005DF804FB08B50846012104F0DDF80028D6
:103880000CBF0320002008BD07B5ADF8041001A847
:10389000002104F0DAF800280CBF0A20002003B051
:1038A0005DF804FB08B50846012104F0CEF80028B5
:1038B0000CBF0A20002008BD002004F0C9B8012078
:1038C00004F0C6B84FF47A7310B55A430A4C0B4B48
:1038D000226008461970FFF757FE03F0F9FF2068D1
:1038E00004F08BF820B10520FFF738FE002010BD52
:1038F0000520FFF75BFEF9E7041500200215002004
:1039000010B50C4621B103F0F6FF2070002010BD69
:103910000720FCE713B50C4661B101A804F0A2F83A
:10392000054A9DF8053012785E3B9B1A23700020F3
:1039300002B010BD0720FBE71115002013B50D4B99
:103940001B78194448B210F15E0F10DB0024ADF86B
:1039500005408DF807408DF8044003F0DDFF8DF839
:10396000050001A804F077F8204602B010BD07203A
:10397000FBE700BF1115002021B1034B1B780B7032
:10398000002070470720704711150020F7B50B4C39
:10399000054601A80E4694F9007004F063F89DF8FE
:1039A0000530217826705E3B591A49B22846FFF748
:1039B000C5FF00B1277003B0F0BD00BF1115002096
:1039C000F8B50026404D044637462B684BB12046DB
:1039D0000022294601F0E6FD28682F60013804F036
:1039E00010F80136102E05F12005EED1374D2B6869
:1039F0009F0714D5364E0120FFF7B0FD32683549D8
:103A0000002A20464FF0000318BF324601F0D8FDCF
:103A1000306820B1013803F0F4FF002333602B68D5
:103A20005E0708D50220FFF799FD2A490F230022DF
:103A3000204601F0C5FD2B68180708D50320FFF7C5
:103A40008DFD24490E230022204601F0B9FD2B688C
:103A5000D90608D50420FFF781FD1F4B00211A78F5
:103A6000204601F09FFD2B685A0608D50620FFF777
:103A700075FD1A4B204693F9001001F0ADFD2C683E
:103A800014F0010408D003F096FF0446A0B900F03A
:103A90003EFC2046FFF762FD2B689B0611D5104BBC
:103AA000187803F015FF0F4B186803F0A6FF28B92C
:103AB000BDE8F84000F09BBA0124EDE70520FFF7D0
:103AC0004DFD002CF4D1F8BD501500203815002014
:103AD000C8140020581700204C15002001150020A4
:103AE00002150020041500202DE9F84FDFF8D8B0AA
:103AF0001F460446894692460023D8465D0155F884
:103B00000B10002950D10BEB0506202230460BF09C
:103B10005BFA631C4BF805302378B38086F8159068
:103B200086F816A003F0E3FEB0716278DFF89C908F
:103B300012F020023FD1454405F1100AEB7D62F3FB
:103B400000038AF80730FFF7C1FB2178804638462A
:103B500003F0E5FE0746FFF7A5FB0246A8EB0700CA
:103B6000121A61F10003C5E90223002389F800302D
:103B70006378124C13F0200F10D0304600F09CFAFE
:103B800060B19AF80730227862F341038AF807306F
:103B90000B4B1B682B610B4B1B782B750023237081
:103BA000BDE8F84F00F023BA0133102BA6D1002353
:103BB00001341C60FFDE99F80020BCE7EE14002001
:103BC000E8140020EC14002050150020ED14002013
:103BD000431E092B09D8DFE803F00516191C1C1C2D
:103BE0001C051C1C0D4B12221A700D4A0023137069
:103BF0000C4A0828137001D005280DD1074A00206F
:103C00001370FFF7D3BC054B1122EDE7034B1622CF
:103C1000EAE7024B0122E7E70420F2E74C15002017
:103C2000ED140020EE14002070B54278224B234E94
:103C3000C2F3001119700021130788B004463170D7
:103C400033D51C2201A80BF0BFF9631C0093684612
:103C50002378ADF8043000F04FFA0446684600F0CF
:103C60003AFA10B30CB3164B1B789C421FD05A1E65
:103C700094421ED001339C4217D1124B124D134A6D
:103C800029681160124A0293147021460122684685
:103C9000327000F03EFA296868464B1C2B6000F039
:103CA0003AFA0C49684600F005FA08B070BD0A4BB4
:103CB000E4E70A4BE2E700BFED140020EE14002019
:103CC000101500202815002014150020E8140020ED
:103CD000EC14002008150020EF1400203C150020F3
:103CE0002DE9F047DDF820A0144C90461F460D4604
:103CF00029B92160BDE8F0470120FFF757BCFFF765
:103D0000E5FAA946064619F8011B504603F007FEDE
:103D10008246FFF7C7FA0246A6EB0A00121A61F1C3
:103D20000003C4E90223C4F800902B78A38084F830
:103D30001580A77503F0DBFDA071DBE7C814002038
:103D4000013906290AD8DFE801F00407070407044F
:103D500004000220FFF72ABC0320FBE770470000A5
:103D600008B503F0D5FD034B1870BDE808400620E8
:103D7000FFF71CBC011500206FF0630070470000C6
:103D800010B50A4C204600F0A1F970B1204600F0B1
:103D9000A2F950B1A37EDB0607D4054BA3602046F1
:103DA0000449BDE8104000F085B910BD5817002047
:103DB000EF140020081500207047704700F0A3BCE6
:103DC000FFF77CBBF8B500201C461746DDE9066509
:103DD00007F0F6F8124B134A1F7004F11001234646
:103DE00053F8040B42F8040B8B42F9D10E4A3346C8
:103DF00006F1100153F8040B42F8040B8B42F9D181
:103E00000A4A2B4605F1100153F8040B42F8040B43
:103E10008B42F9D1BDE8F840002007F0D3B800BFCD
:103E2000101500203C150020EF140020281500205C
:103E300010B500200C4607F0C3F8034B00201C60AF
:103E4000BDE8104007F0BEB814150020A0F10B0328
:103E50000F2B9DBF024BC01810F90B0C7F20704731
:103E60001815002008B5FFF7F1FF074B93F9003054
:103E70007F2B04D09842A8BF184640B208BD7F28C7
:103E800008BF0020FAE700BFFF14002010B5084665
:103E90000C4603F01DFD03F07FFD022801D100F068
:103EA00035FA2046FFF7DEFF03F023FD03F08BFD1C
:103EB000FFF76AFB00280CBF0D20002010BD00009A
:103EC00010B50C4603F013FD7F2C07D0044B1C707B
:103ED000FFF7C8FF03F00DFD002010BD0720FCE731
:103EE000FF140020A1F10B030F2B10B50C460DD8C9
:103EF000074B0B4403F80B2C03F0F9FCA04203D151
:103F0000FFF7B0FF03F0F5FC002000E0072010BD34
:103F10001815002021B1034B1B880B80002070472F
:103F200007207047501700207047000008B5034B6A
:103F300008461980FFF7F8FF002008BD5017002041
:103F400010B50C4C00F0E1F900F05CF8FFF7B4FBA1
:103F5000FFF7C6FA22780AB9FFF7B3FA207800F023
:103F6000F4F900F075F9FFF729FABDE8104000F008
:103F7000D1B900BFB04A002010B5114C23780BB165
:103F8000FFF7DEFF0F4B0122C3F8402507F03CF896
:103F900000F0BEF9FFF706F900F006F923780BB937
:103FA000FFF78EFA207800F0CBF9FFF78BFAFFF7D6
:103FB00049FB00F01DF800F0A7F90023237010BDA5
:103FC000B04A002000E00140014B1878704700BF64
:103FD000B04A002010B50446FFF7F2FC00F0B9F932
:103FE00000F016F82046BDE81040FFF73DB97047D5
:103FF000034B00221A60A3F2045301221A60704797
:1040000004C50040014B01225A60704700C00040C7
:104010001F4B2DE9F7431F4CD3F8002125688AB1C7
:104020000022C3F80021D3F800210192019AD3F8AD
:104030000825D3F80835920544BF6FEA83536FEA29
:1040400093532360FFF72EF9134B1A680FF23809C8
:10405000D9E90089861A5A6861EB0207B94508BF99
:10406000B0453FBF0A4A01261660C3E90001236834
:10407000AB4204D003B0BDE8F04303F041BC03B051
:10408000BDE8F083AFF3008080C3C90100000000E9
:1040900000C000401018002008180020704770472A
:1040A000034B18680028B8BF033040F387007047FF
:1040B0001018002000F01ABF08B500F05CFD00F4F5
:1040C0004050A0F500535842584108BD0368187885
:1040D000C0F3C000704707B50DF1070100F016FEF0
:1040E00040B99DF80700A0F108035842584103B0B9
:1040F0005DF804FB0020FAE707B500230DF1070186
:104100008DF8073000F03BFE9DF8070003B05DF826
:1041100004FB00F04ABE00F019BE0000064B00226E
:104120001A6082B01B680193019B044B0122C3F803
:1041300004231A6002B0704700D1004000D0004054
:10414000144B1A6813B51AB3134AD2F80813C907E7
:104150001ED5002119601B680193019BD2F8084508
:104160000E4B0F4A19681068091A7F2906D819687A
:10417000481C186001F07F010A4844541B6812680B
:104180009B1A7F2B81BF044A0123C2F80833536076
:1041900002B010BD00D1004000D000409C180020AB
:1041A000981800201418002070B58022234D244C4C
:1041B000244800210AF008FF234900232B602360D4
:1041C000C02381F80D334FF40053C1F880310B60E8
:1041D0001E49D1F8040540F00100C1F80405D1F8EA
:1041E000000220F00100C1F80002FFF797FF2B4604
:1041F000224611681868091A0329FAD91168186843
:10420000091A032917D90F4D0424002016681968CC
:104210008E421DBF19684E1C01F07F0100211CBF9A
:10422000695C1E600002013C40EA0100EED1BDE87D
:1042300070400AF0D1BE0020F9E700BF98180020B6
:104240009C1800201418002000E100E000D000407D
:10425000074A0123C2F808335360064B4FF400525B
:10426000C3F88020C3F88021002283F80D23704713
:1042700000D0004000E100E02DE9F0471E4E012390
:104280003370002836D0002934D0DFF874801B4FFB
:104290000025C146D8F800403B68E41AE4B24B1B45
:1042A0009C42C8BFDCB2F4B1DFF858E000EB050C6B
:1042B0000022D9F800A03B689A451EBF3B6803F175
:1042C000010A03F07F0302F101021ABF1EF8033056
:1042D000C7F800A0002394420CF8013BE9D8FFF78F
:1042E0001DFF2C44A5B28D42D4D30020002333708F
:1042F000BDE8F0870720F9E79418002098180020FF
:104300009C180020141800207047704770477047B1
:1043100000F002B800F00EB808B50121002006F048
:1043200021FE0028A2BF024B01221A7008BD00BF67
:10433000A0180020014B00221A707047A01800201E
:1043400008B900F069B800F099B808B900F07EB873
:10435000704700F09BB8012070470000083806281D
:1043600014D8DFE800F0060D10131313040008F052
:10437000E9BB074B00221A84064B01221A757047CD
:10438000044B0022FAE7034B01225A75704700BF25
:10439000A41800202C1B0020FFF729BE07B50B48EE
:1043A00001AA01210AF01EF868B9019840B1FEF790
:1043B0007CFF074B1B69C01A0A2894BF002001200C
:1043C00003B05DF804FB0020FAE700BF8809010094
:1043D0002C1B0020012910B514D0022907D081B967
:1043E0000A4C0123237609F0C6FFA06009E00849C2
:1043F00008484FF4007209F0C3FFFEF756FF034B65
:10440000186110BD014BD975FBE700BF2C1B0020C4
:104410002C1900208809010008B51C220021084839
:104420000AF0D2FD09F014FA064808F0C5FA09F0BE
:1044300043FA054808F0A2FBBDE8084008F068BB55
:104440002C1B0020AC0901008809010008B507F009
:104450008BFC58B108F088FB08F05CFE0028FBD10B
:1044600008F018FCBDE8084008F01ABB07F072FC21
:104470000028F5D008F066FBF2E70000024B0022AE
:104480009A751A609A8070472C1B002010B508F0AE
:1044900041FE0028FBD1274C237B0BB1237DDBB2EF
:1044A000627B03F001039A4206D063737BB307F08B
:1044B00051FC08B908F044FB637D33B100236375F8
:1044C00007F048FC08B108F03FFB237E7BB1A168F0
:1044D00029B1194889B2FCF712FF0023A3601649DD
:1044E00016484FF4007209F04BFF00B9207623689C
:1044F000B3B1FFF753FF98B1A28821680F4809F0C4
:1045000019FF18B90123A3752060A08010BD07F022
:104510002BFC10B108F028FBCEE708F013FBCBE72B
:10452000E37D002BF2D00023E375A375BDE81040B6
:10453000FCF7E7BE2C1B00202C1900208809010085
:10454000024B01221A730020704700BF2C1B002071
:1045500070B50D4CA37D05460E4683B9236873B92B
:10456000FFF71CFF10B92560A68070BD07483246D2
:10457000294609F0DFFE012318B9A375F5E70520E8
:10458000F3E71846F1E700BF2C1B00208809010063
:1045900000F0D8B80120704700F0E6B800F0E2B8AB
:1045A00000487047B8090100143000F049BA80692A
:1045B000003818BF01207047143000F06DBA0000B9
:1045C0000148FFF741B900BF481B002008B58369C7
:1045D00023B10348FFF73AF9002008BD0D20FCE79E
:1045E000481B0020836913B10248FFF7ADB80D20C6
:1045F000704700BF481B0020143000F057BA806B92
:104600007047143000F068BA243000F029BD14302F
:1046100000F07CBA08B5836923B10348FFF719F9A4
:10462000002008BD0D20FCE7481B0020836913B162
:104630000248FFF711B90D20704700BF481B00204A
:10464000836907B553B16846012200F0B1FC044804
:104650006946FFF70FF903B05DF804FB0D20FAE798
:10466000481B0020836913B10248FFF70DB90D20E4
:10467000704700BF481B0020836907B553B16846E7
:10468000012200F095FC04486946FFF70BF903B0DE
:104690005DF804FB0D20FAE7481B002008B583698C
:1046A00023B10348FFF708F9002008BD0D20FCE7FF
:1046B000481B002008B5836923B10348FFF7FFF8C2
:1046C000002008BD0D20FCE7481B0020143000F03E
:1046D00039BA143000F045BAFEF7F0BE007D7047DD
:1046E000143000F0C8B9C08A7047143000F0B6B971
:1046F0002A307047143000F0C5B9008D7047FEF7BE
:104700006BBF0120704700F083B810B50446FFF777
:1047100041FF20B1201DBDE8104000F09DB810BD44
:1047200038B500250446C0E90155C560103000F0D9
:1047300041F8214604F1140000F072F984F88C501D
:10474000204638BD10B5064C94F88C302BB9204665
:10475000FFF7E6FF012384F88C30014810BD00BF4D
:10476000481B0020FEF7BEBE90F88C3010B5044602
:104770005BB1002380F88C30243000F0ABFC04F1F6
:104780001000BDE8104000F001B810BD034A1388C6
:1047900003B9FEE7013B1380704700BFD81B002020
:1047A00031B16FF00043994208BF012101607047A9
:1047B0000121FBE737B50D4C23884FF6FF7293427A
:1047C000054600D1FEE753B904210DEB0100FFF7C8
:1047D00053FD00B1FEE701990548FFF7E1FF23888B
:1047E00028460133238003B030BD00BFD81B002012
:1047F000DC1B0020026848F24E33A2FB032313EBBC
:10480000520244BF22F0004201320260104670475B
:10481000034B1B8803B9FEE70248FFF7EBBF00BF5D
:10482000D81B0020DC1B0020036823B9016004486A
:104830004960FCF743BD5A684A605960016070479F
:10484000481B00204368014613B90248FFF7ECBF3C
:10485000704700BF4C1B002038B500250468056078
:1048600054B1606884421CBF43686360036845605C
:1048700008BF00249847F3E738BD4368496810B57E
:104880009C1A8A1AD20FB2EBD47F08BF5B1A4FEA88
:10489000D47008BFD80F10BD70B505680C4625B997
:1048A000BDE870404B68084818478B6898476A68AD
:1048B000831A002B01462368B8BF121ABDE8704066
:1048C0000148A8BF00221847481B002038B50C46F5
:1048D0001146A2689442034606D00568AC4204D152
:1048E0000260FFF7D9FFA46038BD2A460021002AE4
:1048F000F9D0944208D011469268F8E78B68002BF3
:10490000F1D09B688B60EEE70029F7D1002DEAD04B
:10491000AA681A60E7E72DE9F047936805460C4658
:10492000164698473246814621462846FFF7CEFF75
:10493000D5F800A04FF00008574647B14A4639461F
:104940002046FFF79AFF10B9B846BF68F5E7B8F1FF
:10495000000F08D1C4F808A031462C602846BDE8F5
:10496000F047FFF799BFD8F80830A360C8F80840AF
:10497000BDE8F08770B5066804460D467EB18B68C9
:1049800098477368C01A002809DB20462A4631463A
:10499000FFF79CFF33683046BDE870401847294652
:1049A0002046BDE87040FFF777BF000010B5044611
:1049B000FFF7F0FD30B104F108000349BDE81040F5
:1049C000FFF7D8BF10BD00BF1C0A01004160024ABA
:1049D00001460248FFF79FBF100A0100541B002048
:1049E000002A00DAFEE71144FFF7F0BF0146024A51
:1049F0000248FFF76BBF00BF100A0100541B0020E4
:104A000010B50446FFF7C6FD30B104F10C000349B0
:104A1000BDE81040FFF7AEBF10BD00BF100A010097
:104A200010B50B2303704FF6FF7343800023C0E9DA
:104A300001330446C360103000F0CEFA204610BDAA
:104A400038B504460D46103019B100F02DFB10B1F9
:104A500038BD00F03FFB65600020F9E738B54368DA
:104A600004460D462BB1103000F0FEFA65800020A0
:104A700038BD0D20FCE7436813B10170002070477A
:104A80000D20704708B5436823B1103000F0F8FAE4
:104A9000002008BD0D20FCE708B5436823B11030A5
:104AA00000F0E8FA002008BD0D20FCE743681BB1C8
:104AB00010F8101B00F022BB0D20704710B44468A2
:104AC0002CB122B9234603485DF8044B18475DF822
:104AD000044B7047481B002038B5436804460D4618
:104AE0002BB1103000F072FC00B9A56038BD0D206C
:104AF000FCE7000038B5856804461DB10248A847A8
:104B00000023A36038BD00BF481B002038B51D46F8
:104B1000436804462BB1103000F032FB00B9E56069
:104B200038BD0D20FCE70000436810B504462BB1EA
:104B3000C3681BB1024898470023E36010BD00BF63
:104B4000481B002013B544684CB1059C0194049C9B
:104B50000094103000F09CFB002002B010BD0D202E
:104B6000FBE708B5436823B1103000F0E3FC0020F8
:104B700008BD0D20FCE7036858781B7843EA002045
:104B8000704700F44053B3F5005F1ED120F44E533C
:104B900023F03F0348F2400293421CD00CD8B3F5F7
:104BA000446F18D005D8B3B1B3F5046018BF012025
:104BB0007047B3F50040F9E74CF6404293420AD003
:104BC00000F44C40B0F54040F0E710F4406F14BFE3
:104BD0000120002070470020704710F440430DD0A2
:104BE00043060BD400F44053B3F5005F08D100F442
:104BF0004C40B0F54C4018BF012070470020704772
:104C000001207047102804D0182814BF0020082065
:104C100070470420704700F00700013806280BD8C1
:104C2000DFE800F00406080A0406080004207047C4
:104C3000082070471020704700207047430708D0B5
:104C400000F01803083BDBB2102B04D8034AD05CF9
:104C50007047FF2070470520704700BF280A0100F9
:104C600008B50146FFF78DFF002801F440630CBF33
:104C700003220522B3F5006F06D0B3F5406F17D0BD
:104C800023B1FF22104608BD0232D2B20846FFF718
:104C9000A4FF08B10232D2B201F44041B1F5004F95
:104CA00008D0B1F5404F08D0002918BFFF22E9E72E
:104CB0000832EAE70232D2B2E4E70832FBE708B58D
:104CC0008388042B05D9FFF756FFBDE80840FFF79E
:104CD000C7BFFF2008BD8288022A05D903681B7858
:104CE0001B0701D5FFF7EBBFFF20704738B505461E
:104CF0000C46FFF7F0FFFF281FBF2B681B5C03F07B
:104D00000703237014BF0020062038BD38B50546C0
:104D10000C46FFF7E0FFFF281FBF2B681B5C03F06A
:104D20001803237014BF0020062038BD38B505468F
:104D30000C46FFF7D0FFFF281FBF431C2A68DBB2D9
:104D400000201ABFD3582360062038BD38B5054669
:104D50000C46FFF7C0FFFF2800D1FEE72A68431C7E
:104D6000D9B252FA83F35454220A5A70220C240EF8
:104D70009A70DC70AB7E43F00103AB7638BD38B57A
:104D800005460C46FFF7A7FFFF2802460BD02B680D
:104D9000185C00F01800FFF735FF134403440020AF
:104DA0005B79237038BD0620FCE738B505460C4614
:104DB000FFF791FFFF28024600D1FEE72B68185C41
:104DC00000F01800FFF71EFF134403445C7138BD68
:104DD00010B50446FFF77FFFFF2806D02368185C54
:104DE000FFF719FF0230C0B210BD0220FCE710B57A
:104DF0000446FFF764FFFF28014610D023681A78A5
:104E000012070CD5A488A0420BDA185CFFF716FF36
:104E1000FF2808D00844C1B28C42B8BFFF21084621
:104E200010BDFF21FBE70146F9E7F8B50646FFF79D
:104E3000DEFF84B2FF2C2DD03046FFF79CFE8305A9
:104E400005461CD53046FFF7C3FF3768B188A21C62
:104E500093B210FA82F28A4207EB04061CDC3A5D38
:104E600002F07F0213449CB210FA83F3994213DBE1
:104E70003288C2F3C7127F2A01D09942E7D105F4E4
:104E80004053B3F5005F05D005F00705032D01D1B0
:104E90000134A4B2E0B2F8BDFF24FBE710B504462C
:104EA000FFF7C3FFFF2816BF23680020C01810BDFE
:104EB00010B50446FFF7F2FF2368C01AC0B210BD58
:104EC00038B50546FFF7F4FF04462846FFF780FF94
:104ED0000444A888001B80B238BD10B50446FFF713
:104EE00077FFA388181A2368184410BDF0B504464C
:104EF000E3B000230AA805930D4600F024FD2368C3
:104F00001B781B074FD50DF113012046FFF7EEFE6E
:104F1000002848D105A92046FFF708FF06460028CB
:104F200041D106AF9DF8132005993B46284600F075
:104F3000FCFCA1680AA800F05FFB2046FFF748FFD1
:104F400005462046FFF7B4FF03902046FFF7B8FF61
:104F5000023D0D2302460399CDE900730AA8EBB286
:104F600000F04DFB2046FFF7A3FF216802460AA888
:104F700000F0E9FB2046FFF791FF03902046FFF782
:104F80009FFF039A0096034611460AA800F020FCF2
:104F90002046FFF7A2FF01460AA800F0A9FCA37E65
:104FA00043F01003A3760AA800F0DAFC63B0F0BD6A
:104FB00012B1012A05D070470B6803604B6843604B
:104FC000704701F10803013813F8012D00F8012F93
:104FD0008B42F9D17047000073B51F4E0191044612
:104FE0003046FEF72FFC4FF6FE730025A38047F6F0
:104FF0000173E38120706570658025613046FEF79E
:105000000DFC0199606104F1180000F0A1FA134B46
:105010006565C4E9173504F15C0363662946C4E994
:10502000075584F85850C4F80650C4F80A501022A6
:1050300004F1240009F0C8FF2946102204F13400CD
:1050400009F0C2FF1022294604F1440009F0BCFF18
:10505000204602B070BD00BF481B0020295500004B
:10506000007840F0E40070470148FEF7C5BA00BF81
:10507000481B00208180014800F088BA591B00209D
:1050800007B50A68C0F806204A68C0F80A2001225D
:105090006846FFF78DFF0348694600F071FA03B0D8
:1050A0005DF804FB591B0020437810B5044663B932
:1050B0000748FEF729FB50B90548FEF745FB30B914
:1050C0006378012B01D001236370002010BDFEE73F
:1050D000481B002010B504465C30FFF787FC0648EB
:1050E000FEF732FB30B90448FEF718FB10B96378BD
:1050F00003B1607010BD00BF481B002010B504460E
:105100000448FEF7C3FE20B96378022B1CBF0223BC
:10511000637010BD481B00204378032B10B5044674
:1051200001D0062B25D12378DB0606D4636911480C
:105130009979FEF7ABFE00B1FEE76378042B1CBF44
:1051400004236370E3691BB1226A606901219847F7
:105150006169094800F020FA0D2808D161690B69DE
:1051600033B10023C1E90433034800F015FA00B15C
:10517000FEE710BD481B0020591B002070470000AF
:10518000437810B504467BB1033B032B0CD903785D
:105190009B070BD50648FEF795FB6378052B01D0DE
:1051A00005236370002000E00D2010BD0C20FCE7FB
:1051B000481B00204378022B1CBF02234370183089
:1051C00000F0D6B910B503789B07044600D5FEE77A
:1051D0001048FEF727FB7F2806D094F90F307F2B6D
:1051E00001D0834200DAE073FEF75FF82369C01A4A
:1051F000002808DA216E04F15C004FF4FA32BDE8B1
:105200001040FFF7EDBB94F90F102046BDE81040A9
:10521000FFF7D0BF481B0020007880F02000C0F3CB
:1052200040107047007880F00400C0F380007047A1
:10523000007880F04000C0F38010704742694378E6
:10524000126910B50446C2B1062B1CBF0623437079
:10525000FFF7EEFFA8B10D48FEF7B2FD6369D3E991
:1052600004218B18C3F18003C3420AD504F15C000A
:105270008039BDE81040FFF7B3BB032B01D00323F7
:1052800043702046BDE81040FFF746BF481B002092
:105290002DE9F0470829DDE9088904460D4603D0C9
:1052A00011F0EF0F29D0FEE780F858201E4600F1DC
:1052B000240C03F1100E30687168674603C7083686
:1052C0007645BC46F7D1464604F1340C08F1100E81
:1052D00030687168674603C708367645BC46F7D123
:1052E0004E4604F1440C09F1100E306871686746AF
:1052F00003C708367645BC46F7D12046FFF78CFF3A
:1053000038B9CDE9088929460348BDE8F047FEF7DA
:1053100059BDBDE8F08700BF481B0020416518302B
:1053200000F02CB9C36970B505460C4616462BB182
:1053300021B11AB9026A3146204698472846FFF73C
:105340006BFF38B934B1E37D9B0703D5216928464B
:10535000FFF7E4FF3246214605F11800BDE8704032
:1053600000F0F8B837B50446406903681B781D079C
:105370002AD5837ED90627D40DF10701FFF7C6FC95
:1053800010BB6069837EDA0703D494F85810FFF7E6
:105390000CFD2046FFF740FFB0B19DF80730082B09
:1053A00012D1606904F134038360837EDB0707D484
:1053B000656D2946FFF7CAFC691C2046FFF7AEFF62
:1053C0006069A11DFFF792FD03B030BD38B5437889
:1053D00005465BB1033B032B08D90024FFF7C2FF4E
:1053E00028466C80FFF72AFF204638BD0D20FCE7D9
:1053F00037B505460C46FFF70FFFC0B90B681B78A1
:105400001B0714D50DF103012046FFF77FFC00B107
:10541000FEE79DF80330082B09D101A92046FFF7CC
:1054200085FC00B1FEE701992846FFF777FF03B03E
:1054300030BD2DE9FF411E4604465C300D469046C6
:10544000FFF7D4FA0E2E3BD004D8002E38D00B2E06
:105450000BD0FEE70F2EFCD10021AB7E5B0704D5FD
:10546000AA7904F1180000F07BF829462046FFF7DE
:10547000BFFF0023A370E37826B32046FFF7D2FED8
:10548000074620B16F7E9F4294BF0027012704F199
:105490001800CDE90037424633462946039000F014
:1054A00060F8039887B1E3780133E370AB7E204660
:1054B00043F00203AB7604B0BDE8F041FFF7BEBE97
:1054C0000121CAE73746E2E76378022B1CBF0223BB
:1054D000637042463346294604B0BDE8F04100F00F
:1054E00041B800004378033B10B50446032B18D89D
:1054F000DFE803F002061302BDE81040FFF70CBE20
:10550000436908489979FEF7C1FC616920460E237A
:10551000BDE810400022FFF78CBFBDE81040FFF748
:1055200051BE10BD481B00200148FFF7DBBF00BF84
:105530006C1B002008B54165FFF76EFE20B9BDE881
:1055400008400248FEF774BC08BD00BF481B00209D
:10555000704700000148FFF7B1BA00BF5C1B002094
:10556000704770470148FFF7C5BA00BF5C1B0020B9
:105570000148FFF7D9BA00BF5C1B0020704700004C
:105580000148FEF743B800BF481B00200148FEF762
:105590004FB800BF481B00200148FEF7E5B800BF28
:1055A000481B002090F88C3013B1123000F0DEB9A7
:1055B000704790F88C3013B1123000F0DDB97047AD
:1055C00010B490F88C4024B15DF8044B123000F018
:1055D000D9B95DF8044B704790F88C3013B1123094
:1055E00000F0D6B9704700000048704700F8FF0788
:1055F00008B5FFF7F9FF08BD802200F0AAB92DE930
:10560000F84F13F00109DDF828A004460E46904635
:105610001F4602D1043B0C2B00D9FEE713464A4635
:10562000D0B201320BB11B0AFAE79DF82C500228C8
:1056300038BF02200D2D28BF0D25C5F10F0398425C
:10564000B8BFD8B2C0F10F039D42C8BFDDB2013868
:10565000BB1E002E5FFA80FB4FEA630314BF40229B
:1056600000224BEAC303134384F818312A465146FB
:1056700004F2191009F080FC04F2271142460F23AE
:105680009D4205D2013B01F80129DBB2120AF7E77E
:1056900004F58C721146204600F05DF98EB1B6F526
:1056A0007F4F94F8182194F81931C6F30720F1B20E
:1056B00029D242404B4084F8182184F819314FF028
:1056C00002092A46514684F828B104F2291009F04B
:1056D00053FC05F22910C5F10F020021204409F006
:1056E00073FC0023C4E95338C4F85431102384F800
:1056F0005C51C4F84861A4F85891A4F85A3184F870
:105700005D71BDE8F88F83F0FE0384F8193194F8D9
:105710001A3183EA166384F81A3194F81B31D243A4
:1057200083EA164384F8182184F81B3194F81C216D
:1057300094F81D3142404B4084F81C2184F81D31FF
:105740004FF00609BDE72DE9F843D0F84C31154676
:105750001344D0F848219342044620D80E464F19EE
:1057600000F58C794FF00008B74219D0B4F85831E1
:10577000102B06D14A464946204600F0ECF8A4F822
:105780005881B4F858315A1C2344A4F8582116F80B
:10579000010B93F81821504083F81801E4E7FEE765
:1057A000D4F84C21D4F8483115449D42C4F84C51EA
:1057B0000BD1B4F858312BB104F58C721146204648
:1057C00000F0C9F80023A4F85831BDE8F8830000C0
:1057D0002DE9F74F98469DF830300193D0F85431B9
:1057E0001746D0F850214344934204460E4600D950
:1057F000FEE7DFF8F8A00025AAEB000A00F59C7B85
:10580000454550D0B4F85A31102B17D194F85C119B
:1058100004F237120AEB0203994206DA13780133D5
:10582000DBB202F80139002BF4D05A4604F594712A
:10583000204600F090F80023A4F85A31B4F85A2119
:10584000019B511C89B222441BBB16F80590A4F899
:105850005A1192F8382189EA02027A55B4F858218F
:10586000102A08D104F58C721146204600F073F816
:105870000022A4F85821B4F85821511C2244A4F85D
:10588000581192F8181189EA010382F8183101358C
:10589000B6E7785DA4F85A1192F8383180EA030926
:1058A00006F80590DAE7D4F854311D44D4F85031A5
:1058B000C4F854519D4215D3B4F858312BB104F5B6
:1058C0008C721146204600F046F894F85C2102F2F2
:1058D00029100021C2F10F02204403B0BDE8F04FAF
:1058E00009F072BB03B0BDE8F08F00BFD8FEFFFF28
:1058F00038B5D0E954329A4204460D4600D0FEE74E
:1059000000F5947100F59C7200F025F804F58C7197
:10591000002394F85D219A4206DD11F8012BC87F1F
:105920004240EA540133F4E738BD10B504681C6006
:1059300044685C60080E1872080C5872080A987265
:10594000D9721A7310BD10B5044600F003FE20464C
:1059500010BD00F023B813460A46012100F03ABEFC
:1059600010B5044600F004FE204610BD0148FFF7C4
:10597000D9BC00BF6C1B00200148FFF7FFBB00BF74
:105980006C1B00200148FFF754BD00BF6C1B0020BA
:105990000148FFF70FBC00BF6C1B0020E0B1D9B17C
:1059A000C02A08B507D0B2F5807F12D0802A0DD06A
:1059B0006FF01F0008BD0C23036000F10803436073
:1059C000D208184600F07AFB002008BD0A230360C5
:1059D000F3E70E230360F0E76FF02000704700BF8D
:1059E00010B504461046D4E90032063B9B0000F097
:1059F00037FA002010BD00BF10B504461046D4E9A8
:105A00000032063B9B0000F003F8002010BD00BFF1
:105A10002DE9F14F03F11C0402EB840C4FEA930BC8
:105A20008A68CB680868496800F046F93CE9F000EC
:105A30006040694072407B400BF1060E4EE083EA05
:105A4000134480EA134582EA134746BA96EA34447F
:105A5000604000F00F1684EA063420F00F1684EA46
:105A6000161054BA94EA0106724002F00F1486EA46
:105A7000043622F00F1486EA14124CBA65406940CD
:105A800001F00F1485EA043521F00F1485EA141192
:105A90005CBA67407B4003F00F1487EA043723F0B9
:105AA0000F1487EA141344BA44404DBA4D4056BA15
:105AB00056405FBA5F4087EA174886EA174B84EA88
:105AC00017464FEA38488BEA1B4485EA1B4788EAA9
:105AD0001B4580EA3440694072407B4000F07034DE
:105AE00000F0803500F00F3040EA440040EAD50075
:105AF00080EA900404F0332480EA8400604001F0DE
:105B0000703401F0803501F00F3141EA440141EA7F
:105B1000D50181EA910404F0332481EA84016140D3
:105B200002F0703402F0803502F00F3242EA440293
:105B300042EAD50282EA920404F0332482EA840223
:105B4000624003F0703403F0803503F00F3343EA12
:105B5000440343EAD50383EA930404F0332483EA3D
:105B600084036340C943DB4381EA000483EA0446BB
:105B700086EA020183EA014382EA334583EA144359
:105B800083EA040484EA00077FEA040A8AEA024AF4
:105B90008AEA010B87EA11488AEA374A80EA060155
:105BA00081EA1A418AEA030A04EA0A00454088EABF
:105BB000040707EA0B0041408AEA0B0608EA0600E0
:105BC00084EA34428AEA3A4602EA060358404540EB
:105BD000414087EA37438BEA3B4003EA000985EA04
:105BE000090582EA0309464009EA0606714085EA8A
:105BF000010005EA3546464006EA314181EA304176
:105C000081EA364606EA304686EA354634400F4099
:105C100086EA010508EA050886EA3640024088EA75
:105C2000020881EA314213405C4080EA020309EA3B
:105C3000030987EA0907674088EA040806EA0A06B2
:105C400001EA0B018AEA0B0425408AEA3A44204023
:105C500045408BEA3B4B02EA0B02564084EA0B04B8
:105C6000234059406E40694087EA364080EA384018
:105C700080EA060380EA104481EA134585EA344548
:105C800085EA17427D4082EA354180EA05403CE9D9
:105C9000F0006040694072407B40BEF1010E3FF66B
:105CA000CEAE00F05FF810BC20606160A260E360DF
:105CB000BDE8F08F00F002BA80EA101404F0F0148E
:105CC00080EA0410604081EA111404F0F01481EAC3
:105CD0000411614082EA121404F0F01482EA041202
:105CE000624083EA131404F0F01483EA041363405F
:105CF00080EA102404F47F4480EA0420604081EAB2
:105D0000112404F47F4481EA0421614082EA1224D0
:105D100004F47F4482EA0422624083EA132404F4F8
:105D20007F4483EA0423634081EA500404F055343D
:105D300080EA4400614083EA520404F0553482EA68
:105D40004402634082EA900404F0333480EA840021
:105D5000624083EA910404F0333481EA84016340B1
:105D6000704700BF82EA900404F0333480EA840074
:105D7000624083EA910404F0333481EA8401634091
:105D800081EA500404F0553480EA4400614083EA1B
:105D9000520404F0553482EA4402634080EA10243D
:105DA00004F47F4480EA0420604081EA112404F472
:105DB0007F4481EA0421614082EA122404F47F4492
:105DC00082EA0422624083EA132404F47F4483EAD3
:105DD0000423634080EA101404F0F01480EA0410F5
:105DE000604081EA111404F0F01481EA041161406A
:105DF00082EA121404F0F01482EA0412624083EA88
:105E0000131404F0F01483EA04136340704700BFD6
:105E10002DE9F04F4FF2F00280EA1031114080EA94
:105E20000130484041088208C3084FF0000EA3E04B
:105E300000F0113001F0113102F0113203F0113392
:105E400040EA410040EA820040EAC3004FF2F0021B
:105E500080EA1031114080EA01304840BDE8F08FFF
:105E60002DE9F14F94464FEA930B8A68CB68086896
:105E70004968FFF721FF0BF1060E33E083EA134474
:105E800080EA134582EA134746BA96EA34446040F2
:105E900000F00F1684EA063420F00F1684EA16107C
:105EA00054BA94EA0106724002F00F1486EA0436EE
:105EB00022F00F1486EA14124CBA6540694001F0D2
:105EC0000F1485EA043521F00F1485EA14115CBA29
:105ED00067407B4003F00F1487EA043723F00F1468
:105EE00087EA1413BCE8F0006040694072407B40D0
:105EF00000F0E03400F0103500F00F3040EA5400BC
:105F000040EAC50080EA900404F0332480EA84006B
:105F1000604001F0E03401F0103501F00F3141EA4A
:105F2000540141EAC50181EA910404F0332481EA75
:105F30008401614002F0E03402F0103502F00F32CB
:105F400042EA540242EAC50282EA920404F033248F
:105F500082EA8402624003F0E03403F0103503F07B
:105F60000F3343EA540343EAC50383EA930404F07E
:105F7000332483EA8403634081EA324787EA134586
:105F800081EA354690EA060484EA034B82EA1B4222
:105F900080EA044484EA054483EA144A85EA144406
:105FA0008BEA044B84EA374481EA0B4181EA1641CB
:105FB00004EA0A00454082EA04082BEA080041404E
:105FC0008AEA0B0602EA060084EA34438AEA3A4681
:105FD00003EA060778404540414088EA38478BEAA3
:105FE0003B4007EA000985EA090583EA07094640BC
:105FF00006EA0906714085EA010005EA3546464091
:1060000006EA314181EA304181EA364606EA304605
:1060100086EA3546344008EA010886EA01052A4046
:1060200086EA364003405A4081EA31431F407C40B3
:1060300080EA030709EA070988EA0908544088EA60
:10604000020806EA0A0601EA0B018AEA0B02154079
:106050008AEA3A42104045408BEA3B4003405E40AA
:106060004240174079404D404E40E443F64386EAB3
:1060700018435D4085EA054083EA134386EA0341FD
:1060800083EA384284EA114383EA04435FEA3343F4
:10609000BEF1010E3FF6F2AE3FF5CAAEBCE8F0002D
:1060A0006040694072407B40FFF75CFE10BC20609E
:1060B0006160A260E360BDE8F08F00BF2DE9F041B0
:1060C00002F11C050646074600EB850851F8040B53
:1060D00046F8040B043AF9D14FF0010CFFF798FE93
:1060E0005FEA302080EA0C004FEA4C0C4FEA1C219A
:1060F00040F21B1201FB02F28CEA020C1ECF41405F
:106100004A4053405C401EC62000464510D02C2D0E
:10611000E4D03C2D06D1FFF77BFE06CF41404A403C
:1061200006C6100006CF41404A4006C61000D5E71B
:1061300036E90F00FFF7C0FD86E80F00043DF7D1F8
:10614000BDE8F08190B4ADF5016D00AF0023C7F854
:106150000C380123C7F8083826E007F58063D7F824
:106160000C28D7F8081843F822103B46D7F808281F
:10617000D7F80C1843F82210D7F808385A00D7F887
:10618000083803F08003002B01D01B2300E000231C
:106190005A40D7F808385340DBB2C7F80838D7F868
:1061A0000C380133C7F80C38D7F80C38FF2BD4DD86
:1061B0000023C7F80C380123C7F808381BE0D7F8CC
:1061C0000828D849D7F80C3841F82320D7F80838E0
:1061D0005A00D7F8083803F08003002B01D01B23A6
:1061E00000E000235340DBB2C7F80838D7F80C387A
:1061F0000133C7F80C38D7F80C38092BDFDDCA4B50
:1062000063221A70C94B002283F863200123C7F868
:106210000C386DE03B46D7F80C2853F82230C3F118
:10622000FF0207F5806353F82230C7F80838D7F823
:106230000838C7F80438D7F804385A00D7F80438B3
:10624000DB111343DBB2C7F80438D7F80828D7F8B6
:1062500004385340C7F80838D7F804385A00D7F83C
:106260000438DB111343DBB2C7F80438D7F8082829
:10627000D7F804385340C7F80838D7F804385A001C
:10628000D7F80438DB111343DBB2C7F80438D7F86A
:106290000828D7F804385340C7F80838D7F8043826
:1062A0005A00D7F80438DB111343DBB2C7F80438BF
:1062B000D7F8043883F06303D7F808285340C7F8A9
:1062C0000838D7F80838D9B2974AD7F80C381344A9
:1062D0000A461A70D7F80C38D9B2944AD7F8083859
:1062E00013440A461A70D7F80C380133C7F80C3833
:1062F000D7F80C38FF2B8DDD0023C7F80C3806E1EA
:10630000894AD7F80C3813441B78C7F80838D7F8EF
:1063100008385A00D7F8083803F08003002B01D062
:106320001B2300E000235340DBB2C7F80438D7F842
:106330000428D7F808385340DBB2C7F80038D7F83C
:1063400008381A02D7F804385A40D7F808381B041E
:106350005A40D7F800381B065A407549D7F80C3810
:1063600041F82320724AD7F80C3852F823304FEA0C
:1063700033627049D7F80C3841F823206D4AD7F8BA
:106380000C3852F823304FEA33626B49D7F80C3897
:1063900041F82320684AD7F80C3852F823304FEAE6
:1063A00033626649D7F80C3841F823205F4AD7F8A2
:1063B0000C3813441B78C7F80838D7F80838002B76
:1063C00018D03B469A6B3B46D7F8081853F8213053
:1063D0001A445B4B82FB03341319D911D317C91A22
:1063E0000B461B025B1AD11A07F5806353F8213064
:1063F000184600E00020D7F80838002B18D03B469C
:106400005A6A3B46D7F8081853F821301A444C4BC7
:1064100082FB03341319D911D317C91A0B461B0277
:106420005B1AD11A07F5806353F821301B0200E094
:1064300000235840D7F80838002B18D03B465A6B39
:106440003B46D7F8081853F821301A443C4B82FBDE
:1064500003341319D911D317C91A0B461B025B1A3F
:10646000D11A07F5806353F821301B0400E00023A4
:106470005840D7F80838002B18D03B46DA6A3B461C
:10648000D7F8081853F821301A442D4B82FB0334F7
:106490001319D911D317C91A0B461B025B1AD11A4B
:1064A00007F5806353F821301B0600E0002380EAE3
:1064B00003022449D7F80C3841F82320214AD7F8A1
:1064C0000C3852F823304FEA33621F49D7F80C38A2
:1064D00041F823201C4AD7F80C3852F823304FEAF1
:1064E00033621A49D7F80C3841F82320174AD7F8F5
:1064F0000C3852F823304FEA33621549D7F80C387C
:1065000041F82320D7F80C380133C7F80C38D7F8F6
:106510000C38FF2B7FF7F4AE00BF07F50167BD46CF
:1065200090BC7047E03D0020E01B0020E02C0020E4
:10653000E01C0020E0200020E0240020E0280020D3
:1065400081808080E02D0020E0310020E0350020B7
:10655000E039002080B582B000AF78604FF48C72D3
:106560000021786808F030FD00BF0837BD4680BDC7
:1065700080B582B000AF78607B68002B05D04FF407
:106580008C71786800F042F800E000BF0837BD4623
:1065900080BD00BF80B584B000AFF860B9607A609C
:1065A0007A68B968F868FFF71BFA00BF1037BD4674
:1065B00080BD00BF80B584B000AFF860B9607A607C
:1065C0007A68B968F868FFF717FA00BF1037BD4658
:1065D00080BD00BF80B584B000AFF860B9607A605C
:1065E0003B60BB68012B06D13A687968F868FFF711
:1065F000F7F9034605E03A687968F868FFF7FCF9AF
:10660000034618461037BD4680BD00BF38B131B1D2
:10661000014400220346013081421A70FAD17047CA
:10662000838843B103685A1C026019708388013B58
:106630008380002070470320704700220160828021
:10664000704708B54FF6FF7383807E210068FFF71F
:10665000E7FF08BD7E2938B505460C4600680AD814
:106660007C2903D801F0FD03112B06D18388012B6F
:1066700008D8032005E0F829F7E72146FFF7D0FF07
:1066800040B138BD7D21FFF7CBFF286884F02001A1
:10669000FFF7C6FFAA88054B5440E4B2002033F848
:1066A000143083EA1223AB80EBE700BF3A0A010003
:1066B000F7B50368044693E80300A6886D4685E8AD
:1066C0000300F1438FB22046C9B2FFF7C3FF034670
:1066D00058B9390A2046FFF7BDFF034628B920689C
:1066E0007E21FFF79DFF034628B122680098A98804
:1066F00010609180A680184603B0F0BD30B500252B
:10670000C0E90112C0E90335057030BD2DE9F84339
:10671000384F04460D468E184FF00208AE4266D040
:10672000237815F8011B012B0BD0022B3ED0002B38
:10673000F4D17E29F2D1012323704FF6FF73236138
:10674000ECE77D2917D07E2918D06068B0F8049056
:10675000B9F1000F44D0B4F810C081EA0C02D2B2F3
:1067600037F8123083EA1C232382FFF759FF638A2C
:1067700001336382D2E784F80080CFE7638A002B7D
:10678000DBD0012B10D9228A4FF2B8039A420BD1E9
:1067900063681A68023A1A609A8802329A80002165
:1067A000D4E902309847C8E70621F9E76068B0F8F5
:1067B0000490B9F1000F13D0B4F810C081F020019B
:1067C00081EA0C02D2B237F8123083EA1C2323820A
:1067D000FFF726FF638A01336382012323709DE75D
:1067E000A368E0680321984784F8009096E7BDE825
:1067F000F88300BF3A0A010010B5036803625A1E0D
:1068000011468B4202D904892144FAE741620221F0
:10681000017700210163A1F58031C0E90A33C0E9A5
:106820000D13934202D901890A44FAE7C0E90F2304
:10683000C0E9113310BD10B5002301601144C0E957
:106840000333C0E9053341600281FFF7D5FF10BD76
:10685000C0E903127047C0E905127047012B09D047
:10686000022B0ED073B9114442688A420AD80389B8
:10687000C91AFAE7891A02688A4203D903891944B6
:10688000FAE7FEE708467047012B0DD0022B14D023
:10689000A3B98A4202D3521A90B270474368006883
:1068A000591A121A0A44F7E78A4201D88A1AF3E7FA
:1068B000436800689A1A091AF4E7FEE70022EBE73A
:1068C00010B5144612120A700122FFF7C7FF0470B8
:1068D00010BD10B5134601220C78FFF7BFFF0078FA
:1068E0002402204480B210BD73B5037FC26A0193B5
:1068F0000E46816A00910446FFF7C6FF0128009901
:10690000054613D9019B20461A46FFF7E2FF023DD8
:10691000C5F30D0535432843019B009982B22046FB
:10692000FFF7CEFFE36AA36202B070BDE162FBE74E
:106930002DE9F3411F46037F022B04460D46164600
:1069400021D0826A4968914221D1C26A01930091A3
:10695000FFF79AFF2D68019B009980462A46204642
:10696000FFF792FF3844404511DC3744BE4210D057
:1069700016F8013B2B702946237F01222046FFF7A2
:106980006DFF0546F2E70D2002B0BDE8F08107205B
:10699000FAE70020F8E7037F022BF7B504460D461F
:1069A0001CD0826A4968914218D1C76A00933A465E
:1069B0000191FFF769FF2D68009B019906462A4661
:1069C0002046FFF761FF864208D9009B3A462946D8
:1069D000204603B0BDE8F040FFF756BF002003B0EB
:1069E000F0BD037F022B73B504460D4616D0826AB4
:1069F0004968914214D1C26A01930091FFF744FFA4
:106A00002D68019B009906462A462046FFF73CFF69
:106A1000864205D9E562002002B070BD0D20FBE77B
:106A20000720F9E738B5037F022B044612D0002176
:106A3000FFF75AFF227FA06A04EB8203196A2163E1
:106A40001862E56815B120692346A8470223237719
:106A5000002038BD0D20FCE7006B7047C26B436A15
:106A60009A4205D1836B006A1B1A584258417047FD
:106A70000020704790F8353033B9C36B426A9B1AD7
:106A800018BF012380F8343070472DE9F84390F89F
:106A9000348000EB88060446376A656C2564BD4285
:106AA00022D0424629462046FFF713FF030402D5B1
:106AB000B36B9D4218D1C0F30D00821C434629469A
:106AC0002046FFF7CBFE43468146606402222946FA
:106AD0002046FFF7C3FE8145A064DED0012384F881
